:020000040800F2
:10000000900D0020D51800082D1900082D190008A2
:100010002D1900082D1900082D19000800000000F6
:100020000000000000000000000000002D19000882
:100030002D190008000000002D1900082D190008D6
:100040002D1900082D1900082D1900082D19000878
:100050002D1900082D1900082D1900082D19000868
:100060002D1900082D1900082D190008BD1F0008C2
:10007000CD1F0008DD1F0008ED1F0008FD1F000850
:100080000D2000081D2000082D1900082D1900085A
:100090002D1900082D1900082D1900082D19000828
:1000A0002D1900082D1900082D1900082D19000818
:1000B0002D1900082D1900082D1900082D19000808
:1000C0002D1900082D1900082D1900082D190008F8
:1000D0002D1900082D1900082D1900082D190008E8
:1000E0002D1900082D1900082D1900082D190008D8
:1000F0002D1900082D1900082D1900082D200008C1
:100100002D1900082D1900082D1900082D190008B7
:100110002D1900082D1900082D1900082D190008A7
:10012000913000083D2000084D2000085D200008A7
:100130006D2000082D1900082D1900082D19000840
:100140002D1900082D1900082D1900082D19000877
:100150007D2000088D2000089D2000082D19000832
:100160002D1900082D1900082D1900082D19000857
:100170002D1900082D1900082D1900082D19000847
:100180002D1900082D19000880B584B000AF7860E3
:10019000786800F0C9F8F860FB685B681F4A934212
:1001A00006D91F4A1E4B1B6B43F48003136305E003
:1001B0001B4A1B4B1B6B43F400131363FB68DB6888
:1001C000164A934206D9164A154B1B6B43F480031B
:1001D000136305E0124A124B1B6B43F400131363C5
:1001E000104B00225A610F4B0022DA610D4B0022A6
:1001F0001A620C4B00225A620A4B00229A62094B87
:100200000022DA62074B00221A63064B00225A636F
:10021000044B00229A631037BD4680BD0F64024034
:10022000003802407C00002080B584B000AF7860C8
:100230000B467B8013463B80786800F075F8F860C9
:10024000FB685B685B68002B01D000233EE0FB6825
:100250007A889A827B680C331A461E4B5A603B8818
:100260001C4A1361FB6814331A461A4B9A60194BE7
:1002700000229A61FB681B68164A1360154B4022E6
:10028000DA60144B4FF400521A62124B4FF40062C2
:10029000DA61FB685B6818463D2101F06FFDFB6881
:1002A0005B6818460B4902F033FCFB685B68FA6830
:1002B0005268126842F001021A607B689B889BB208
:1002C00043F002039AB27B689A80012318461037E4
:1002D000BD4680BD7C00002080B584B000AF786052
:1002E000786800F021F8F860FB68DB685B68002B39
:1002F00012D1FB685B685B68002B0DD17B681B89A2
:100300009BB203F00303002B06D07B681B899BB2D2
:1003100003F08003002B01D0012300E00023DBB2B7
:1003200018461037BD4680BD80B485B000AF7860F8
:100330007B680C4A934201D10B4BFB607B680B4AF4
:10034000934201D10A4BFB607B680A4A934201D178
:10035000094BFB60FB6818461437BD465DF8047B0B
:10036000704700BF0030014000000020003800400E
:1003700018000020003C00403000002080B584B010
:1003800000AF78600B46FB70FB78FB73FB7B002BA8
:1003900003D1786800F0FAF867E0FB7B012B03D10A
:1003A000786800F001F960E0FB7B022B03D17868EC
:1003B00000F008F959E0FB7B032B03D1786800F0CB
:1003C0000FF952E0FB7B042B03D1786800F016F99B
:1003D0004BE0FB7B052B03D1786800F035F944E056
:1003E000FB7B062B03D1786800F054F93DE0FB7BE2
:1003F000072B03D1786800F073F936E0FB7B082BFC
:1004000003D1786800F092F92FE0FB7B092B03D130
:10041000786800F0B1F928E0FB7B0A2B03D17868FB
:1004200000F0D0F921E0FB7B0B2B03D1786800F0C2
:10043000D7F91AE0FB7B0C2B03D1786800F0DEF9CA
:1004400013E0FB7B0D2B03D1786800F0E5F90CE09D
:10045000FB7B0E2B03D1786800F0ECF905E0FB7B09
:100460000F2B02D1786800F00BFA786800F004F8DE
:100470001037BD4680BD00BF80B58CB000AF78603E
:1004800000237B770023BB6200237B6200233B6257
:10049000012387F82C3000233B777B68214A934265
:1004A00008D1214A204B5B6C43F4807353640023D2
:1004B000BB6118E07B681D4A934208D11A4A1A4B67
:1004C0005B6C43F4007353640023BB610BE07B68F7
:1004D000174A934207D1144A134B5B6C43F4806371
:1004E00053640023BB6100233B610023BB604FF4D6
:1004F0008033FB604FF440737B6107F108031846BB
:1005000001F0E6FA07F118037868194601F08CFA51
:100510007B689B6843F001027B689A603037BD4678
:1005200080BD00BF00200140003802400021014092
:100530000022014080B584B000AF78600B46FB70AC
:1005400040F6FF73FB60FB787868194601220123AF
:1005500001F002FB7B689B6843F080427B689A60F5
:1005600006E0FB685A1EFA60002B01D1002308E068
:100570007B681B6803F00203002BF2D07B68DB6C06
:100580009BB218461037BD4680BD00BF80B582B013
:1005900000AF78600348012100F098F90837BD46A4
:1005A00080BD00BF0000024080B582B000AF78601F
:1005B0000348022100F08AF90837BD4680BD00BF1C
:1005C0000000024080B582B000AF7860034804218B
:1005D00000F07CF90837BD4680BD00BF0000024036
:1005E00080B582B000AF78600348082100F06EF952
:1005F0000837BD4680BD00BF0000024080B582B014
:1006000000AF78607B680B4A934203D07B680A4A4C
:10061000934203D10948102100F058F97B68084A39
:10062000934203D10748402100F050F90837BD46F6
:1006300080BD00BF002001400021014000000240B9
:10064000002201400014024080B582B000AF786003
:100650007B680B4A934203D07B680A4A934203D1DA
:100660000948202100F032F97B68084A934203D1FF
:100670000748802100F02AF90837BD4680BD00BF39
:100680000020014000210140000002400022014002
:100690000014024080B582B000AF78607B680B4ADE
:1006A000934203D07B680A4A934203D10948402110
:1006B00000F00CF97B68084A934204D107484FF4D4
:1006C000807100F003F90837BD4680BD002001406D
:1006D00000210140000002400022014000140240BD
:1006E00080B582B000AF78607B680B4A934203D03C
:1006F0007B680A4A934203D10948802100F0E6F85A
:100700007B68084A934204D107484FF4007100F017
:10071000DDF80837BD4680BD0020014000210140C2
:1007200000000240002201400014024080B582B067
:1007300000AF78607B680B4A934203D07B680A4A1B
:10074000934203D10948012100F0C0F87B68084AB0
:10075000934204D107484FF4806100F0B7F808379E
:10076000BD4680BD00200140002101400004024040
:10077000002201400014024080B582B000AF7860D2
:100780007B680B4A934203D07B680A4A934203D1A9
:100790000948022100F09AF87B68084A934203D185
:1007A0000748082100F092F80837BD4680BD00BF19
:1007B00000200140002101400004024000220140CD
:1007C0000014024080B582B000AF78600348012178
:1007D00000F07CF80837BD4680BD00BF000802402D
:1007E00080B582B000AF78600348022100F06EF857
:1007F0000837BD4680BD00BF0008024080B582B00A
:1008000000AF78600348042100F060F80837BD4667
:1008100080BD00BF0008024080B582B000AF7860A4
:100820000348082100F052F80837BD4680BD00BFDC
:100830000008024080B582B000AF78607B680B4A48
:10084000934203D07B680A4A934203D1094810219E
:1008500000F03CF87B68084A934203D10748102116
:1008600000F034F80837BD4680BD00BF00200140CD
:100870000021014000080240002201400014024013
:1008800080B582B000AF78607B680B4A934203D09A
:100890007B680A4A934204D10948202100F016F8E7
:1008A00007E07B68074A934203D10748202100F004
:1008B0000DF80837BD4680BD0020014000210140F1
:1008C00000080240002201400014024080B584B0BC
:1008D00002AF78600B467B807A8802230093012365
:1008E0000193786811460322002303F025FA0837A4
:1008F000BD4680BD80B596B002AF07F1140318461F
:1009000001F07EFEFB69012B40F064857B69012BC1
:1009100040F3EA807B699F2B00F3E680BB69002BE4
:1009200040F3E280BB69132B00F3DE80D1E03B464D
:10093000184601F065FE07F114033A4607CA83E83A
:100940000700BB69142B19DDBB69272B16DC1F239D
:10095000009300201421A022282303F057F94FF61A
:10096000FF7300931F23019314201A21AF4AB04B49
:1009700002F06CFFAF4B00225A6014E040F21D53AE
:10098000009300201421A022282303F03FF94FF602
:10099000FF73009340F21D53019314201A21A34AC0
:1009A000A34B02F053FFBB69282B19DDBB693B2B1E
:1009B00016DC1F23009300202821A0223C2303F0F3
:1009C00025F94FF6FF7300931F23019314202E2166
:1009D000994A974B02F03AFF964B01225A6014E075
:1009E00040F21D53009300202821A0223C2303F055
:1009F0000DF94FF6FF73009340F21D53019314203D
:100A00002E218D4A8A4B02F021FFBB693C2B19DD58
:100A1000BB694F2B16DC1F23009300203C21A02232
:100A2000502303F0F3F84FF6FF7300931F23019355
:100A300014204221814A7E4B02F008FF7D4B0222A6
:100A40005A6014E040F21D53009300203C21A02284
:100A5000502303F0DBF84FF6FF73009340F21D5371
:100A6000019314204221754A714B02F0EFFEBB69DD
:100A7000502B19DDBB69632B16DC1F23009300206C
:100A80005021A022642303F0C1F84FF6FF730093B6
:100A90001F23019314205621694A654B02F0D6FEAC
:100AA000644B03225A6014E040F21D53009300206F
:100AB0005021A022642303F0A9F84FF6FF7300939E
:100AC00040F21D530193142056215D4A584B02F009
:100AD000BDFE07F12003184601F092FDBB6A012B11
:100AE0003FF425AF01F0CAFB7B69A02B40F3DB8309
:100AF0007B69B3F5A07F80F2D683BB69002B40F3FE
:100B0000D283BB69132B00F3CE83BFE33B46184669
:100B100001F076FD07F114033A4607CA83E807009F
:100B2000BB69142B1ADDBB69272B17DC1F2300932D
:100B3000A02014214FF4A072282303F067F84FF689
:100B4000FF7300931F230193B4201A213D4A384BB1
:100B500002F07CFE374B00221A6015E040F21D5374
:100B60000093A02014214FF4A072282303F04EF824
:100B70004FF6FF73009340F21D530193B4201A21E6
:100B8000304A2B4B02F062FEBB69282B1ADDBB6991
:100B90003B2B17DC1F230093A02028214FF4A072C9
:100BA0003C2303F033F84FF6FF7300931F230193A8
:100BB000B4202E21244A1E4B02F048FE1D4B012278
:100BC0001A6015E040F21D530093A02028214FF435
:100BD000A0723C2303F01AF84FF6FF73009340F223
:100BE0001D530193B4202E21174A114B02F02EFE03
:100BF000BB693C2B2CDDBB694F2B29DC1F230093E9
:100C0000A0203C214FF4A072502302F0FFFF4FF6CA
:100C1000FF7300931F230193B42042210B4A044B1E
:100C200002F014FE034B02221A6027E06449000818
:100C30006400002048000020704900087C4900083A
:100C4000884900089049000898490008A049000810
:100C500040F21D530093A0203C214FF4A07250237A
:100C600002F0D4FF4FF6FF73009340F21D5301933F
:100C7000B4204221AC4AAD4B02F0E8FDBB69502BD9
:100C80001ADDBB69632B17DC1F230093A0205021C2
:100C90004FF4A072642302F0B9FF4FF6FF73009384
:100CA0001F230193B4205621A14AA04B02F0CEFD90
:100CB000A04B03221A6015E040F21D530093A020C0
:100CC00050214FF4A072642302F0A0FF4FF6FF738F
:100CD000009340F21D530193B4205621944A934B44
:100CE00002F0B4FDBB69642B1ADDBB69772B17DCFE
:100CF0001F230093A02064214FF4A072782302F0F8
:100D000085FF4FF6FF7300931F230193B4206A21E0
:100D1000894A864B02F09AFD864B04221A6015E040
:100D200040F21D530093A02064214FF4A072782359
:100D300002F06CFF4FF6FF73009340F21D530193D6
:100D4000B4206A217C4A794B02F080FDBB69782B84
:100D50001ADDBB698B2B17DC1F230093A0207821A1
:100D60004FF4A0728C2302F051FF4FF6FF730093F3
:100D70001F230193B4207E21704A6C4B02F066FD64
:100D80006C4B05221A6015E040F21D530093A02021
:100D900078214FF4A0728C2302F038FF4FF6FF73D6
:100DA000009340F21D530193B4207E21634A5F4BB0
:100DB00002F04CFDBB698C2B1ADDBB699F2B17DC45
:100DC0001F230093A0208C214FF4A072A02302F0D7
:100DD0001DFF4FF6FF7300931F230193B420922150
:100DE000574A524B02F032FD524B06221A6015E070
:100DF00040F21D530093A0208C214FF4A072A02339
:100E000002F004FF4FF6FF73009340F21D5301936D
:100E1000B42092214A4A454B02F018FDBB69A02B31
:100E20001ADDBB69B32B17DC1F230093A020A02180
:100E30004FF4A072B42302F0E9FE4FF6FF73009363
:100E40001F230193B420A6213E4A384B02F0FEFC3A
:100E5000384B07221A6015E040F21D530093A02082
:100E6000A0214FF4A072B42302F0D0FE4FF6FF731E
:100E7000009340F21D530193B420A621314A2B4B1D
:100E800002F0E4FCBB69B42B1ADDBB69C72B17DC8D
:100E90001F230093A020B4214FF4A072C82302F0B6
:100EA000B5FE4FF6FF7300931F230193B420BA21C0
:100EB000254A1E4B02F0CAFC1E4B08221A6015E0A0
:100EC00040F21D530093A020B4214FF4A072C82318
:100ED00002F09CFE4FF6FF73009340F21D53019306
:100EE000B420BA21184A114B02F0B0FCBB69C82BE0
:100EF0002EDDBB69DB2B2BDC1F230093A020C82138
:100F00004FF4A072DC2302F081FE4FF6FF730093D2
:100F10001F230193B420CE210C4A044B02F096FC0F
:100F2000044B09221A6029E0A0490008640000204F
:100F3000AC49000848000020B8490008C44900082E
:100F4000D0490008DC490008E8490008F0490008D9
:100F500040F21D530093A020C8214FF4A072DC235F
:100F600002F054FE4FF6FF73009340F21D530193BD
:100F7000B420CE21B14AB24B02F068FCBB69DC2B35
:100F800040F36E81BB69EF2B00F36A8140F21D5381
:100F90000093A02014214FF4A072F02302F036FE3B
:100FA00041E13B46184601F02BFB07F114033A469A
:100FB00007CA83E80700BB69142B1ADDBB69272B1E
:100FC00017DC1F230093A02014214FF4A0722823C4
:100FD00002F01CFE4FF6FF7300931F230193B42011
:100FE0001A21984A964B02F031FC974B0A221A605C
:100FF00015E040F21D530093A02014214FF4A0727D
:10100000282302F003FE4FF6FF73009340F21D53B6
:101010000193B4201A218B4A894B02F017FCBB695B
:10102000282B1ADDBB693B2B17DC1F230093A02064
:1010300028214FF4A0723C2302F0E8FD4FF6FF7325
:1010400000931F230193B4202E21804A7C4B02F091
:10105000FDFB7D4B0B221A6015E040F21D530093FF
:10106000A02028214FF4A0723C2302F0CFFD4FF6C0
:10107000FF73009340F21D530193B4202E21734A55
:101080006F4B02F0E3FBBB693C2B1ADDBB694F2BB6
:1010900017DC1F230093A0203C214FF4A0725023A3
:1010A00002F0B4FD4FF6FF7300931F230193B420A9
:1010B0004221674A624B02F0C9FB634B0C221A6063
:1010C00015E040F21D530093A0203C214FF4A07284
:1010D000502302F09BFD4FF6FF73009340F21D5327
:1010E0000193B42042215A4A554B02F0AFFBBB6931
:1010F000502B1ADDBB69632B17DC1F230093A02044
:1011000050214FF4A072642302F080FD4FF6FF736C
:1011100000931F230193B42056214E4A484B02F0FE
:1011200095FB494B0D221A6015E040F21D530093C8
:10113000A02050214FF4A072642302F067FD4FF607
:10114000FF73009340F21D530193B4205621414A8E
:101150003B4B02F07BFBBB69642B1ADDBB69772B31
:1011600017DC1F230093A02064214FF4A072782382
:1011700002F04CFD4FF6FF7300931F230193B42040
:101180006A21354A2E4B02F061FB2F4B0E221A606A
:1011900015E040F21D530093A02064214FF4A0728B
:1011A000782302F033FD4FF6FF73009340F21D5396
:1011B0000193B4206A21284A214B02F047FBBB6906
:1011C000782B1ADDBB698B2B17DC1F230093A02023
:1011D00078214FF4A0728C2302F018FD4FF6FF73B4
:1011E00000931F230193B4207E211C4A144B02F06C
:1011F0002DFB154B0F221A6015E040F21D53009392
:10120000A02078214FF4A0728C2302F0FFFC4FF64F
:10121000FF73009340F21D530193B4207E210F4AC7
:10122000074B02F013FB07F12C03184601F0E8F915
:101230007B6B012B3FF4B5AE28E000BFF0490008FE
:1012400064000020F849000848000020004A000817
:101250000C4A0008184A0008244A0008304A0008CE
:1012600040F21D530093A020DC214FF4A072F02324
:1012700002F0CCFC4FF6FF73009340F21D53019334
:10128000B420E221554A564B02F0E0FA07F1380348
:10129000184601F0B5F93B6C012B3FF437AC00F078
:1012A000EDFF01F067FDBB69152B40F39380BB692F
:1012B0004F2B00F38F807B69B3F5827F40F38A80E8
:1012C0007B69B3F5A07F80F2858051E03B461846EC
:1012D00001F096F907F114033A4607CA83E80700BC
:1012E000BB69152B15DDBB69312B12DC7B69B3F5AE
:1012F000827F0EDD7B69B3F5A07F0ADA1F2300939E
:101300004FF4827015214FF4A072322302F07EFC5C
:101310000AE040F21D5300934FF4827015214FF400
:10132000A072322302F072FCBB69332B15DDBB695E
:101330004F2B12DC7B69B3F58C7F0EDD7B69B3F537
:10134000AA7F0ADA1F2300934FF4827033214FF4EF
:10135000A072502302F05AFC0AE040F21D530093A1
:101360004FF4827033214FF4A072502302F04EFCF0
:1013700007F14403184601F043F9FB6C012BA5D09B
:10138000BB69152B0FDDBB69312B0CDC7B69B3F519
:10139000827F08DD7B69B3F5A07F04DA114BDB683F
:1013A000053B104AD360BB69332B0FDDBB694F2B64
:1013B0000CDC7B69B3F5827F08DD7B69B3F5AA7F1E
:1013C00004DA084BDB680533064AD36000F056FFA9
:1013D00001F0D0FC00BF5037BD4680BD3C4A00083C
:1013E0006400002048000020F0B587B002AF002361
:1013F000FB600023BB6000F003FA8B4B1B889BB2A1
:101400001BB2184600F014F903469BB25B429BB234
:101410007B80864BDB689AB27B8813449BB2823315
:101420009BB27B80B7F90230272B01DC28237B801D
:10143000B7F90230B42B01DDB4237B800023009385
:10144000002015210122F02302F0E0FB0123FB60C4
:10145000DCE0FB680133184602F0B4FF02460B469D
:10146000104619466EA3D3E9002303F04BF9024658
:101470000B461046194603F055FA03469CB2FB682A
:101480000233184602F09EFF02460B4610461946EC
:1014900063A3D3E9002303F035F902460B46104657
:1014A000194603F03FFA03469AB200230093204600
:1014B0001521F02302F0AAFBBB68242B28D10023BE
:1014C0007B6020E0F86802F07DFF02460B46104684
:1014D000194653A3D3E9002303F014F902460B463F
:1014E0001046194603F01EFA03469AB27B689BB277
:1014F00014339BB2104619464FF6FF7202F068F89B
:101500007B6824337B607B68F02BDBDD0123BB60D1
:10151000BB680133BB60444AFB6832F813309BB2AE
:101520001BB2184600F084F803469BB25B429BB2A4
:101530003B803E4BDB689AB23B8813449BB28233BC
:101540009BB23B80B7F90030272B01DC28233B807E
:10155000B7F90030B42B01DDB4233B80F86802F00A
:1015600031FF02460B46104619462DA3D3E900234E
:1015700003F0C8F802460B461046194603F0D2F9AC
:1015800003469EB27D88FB680133184602F01AFFBD
:1015900002460B461046194621A3D3E9002303F067
:1015A000B1F802460B461046194603F0BBF9034654
:1015B0009AB23C884FF6E0730093304629462346A2
:1015C00002F02CFAF86802F0FDFE02460B461046C7
:1015D000194613A3D3E9002303F094F802460B46FF
:1015E0001046194603F09EF903469AB20F4BDB688A
:1015F0009BB282339BB2104619464FF6FF7201F040
:10160000E7FF3B887B80FB680133FB60FB68B3F539
:10161000967FFFF41EAF00BF1437BD46F0BD00BF7C
:101620008FC2F5285C8FF23FB800002048000020F0
:1016300080B584B000AF0346FB800023FB816A4B7A
:101640005B68052B00F2C68001A252F823F000BFB0
:101650009D1700085D17000829170008E916000803
:10166000A916000869160008B7F90630184602F0F6
:10167000B9FE02460B46104619464FF000025B4B7E
:1016800002F016FF02460B461046194654A3D3E952
:10169000002303F037F802460B461046194603F0C4
:1016A00019F90346FB8195E0B7F90630184602F0B8
:1016B00099FE02460B46104619464FF000024C4B6D
:1016C00002F0F6FE02460B461046194644A3D3E943
:1016D000002303F017F802460B461046194603F0A4
:1016E000F9F80346FB8175E0B7F90630184602F0B9
:1016F00079FE02460B46104619464FF000023D4B5C
:1017000002F0D6FE02460B461046194634A3D3E932
:10171000002302F0F7FF02460B461046194603F07D
:10172000D9F80346FB8155E0B7F9062013469B0024
:101730001344184602F056FE02460B461046194660
:1017400027A3D3E9002302F0DDFF02460B46104633
:10175000194603F0BFF80346FB813BE0B7F90630BA
:10176000184602F03FFE02460B46104619464FF05F
:101770000002214B02F09CFE02460B461046194621
:1017800017A3D3E9002302F0BDFF02460B46104623
:10179000194603F09FF80346FB811BE0B7F90620CA
:1017A00013469B0013449A001344184602F01AFE95
:1017B00002460B461046194609A3D3E9002302F05E
:1017C000A1FF02460B461046194603F083F8034674
:1017D000FB8100BFFB891BB218461037BD4680BD98
:1017E00048E17A14AE075F40480000200000E03F67
:1017F0000000F43F0000044000002940AFF30080E7
:1018000080B588B000AF0023FB610A23FB60002392
:10181000BB611FE02D4AFB6932F813309BB21BB24B
:101820001846FFF705FF03467B817B89002B0ED10D
:10183000FB690133254A32F813309BB21BB21846BC
:10184000FFF7F6FE0346002B01DD0123BB61FB69B8
:101850000133FB61BB69002B03D1FB69B3F5967FB4
:10186000D8DBFB699BB2C3F596733B8100237B6198
:101870000EE07A69FB691344144A32F81310144AD3
:101880007B6922F813107B69FB807B6901337B61E4
:101890003A897B699A42ECDC00233B610DE03A69AE
:1018A000FB691344013B094A32F81310084A3B69AB
:1018B00022F813103B6901333B613A69FB699A4294
:1018C000EDDB00BF2037BD4680BD00BFB800002063
:1018D0001003002080B582B000AF0F4B7B600F4B30
:1018E0003B6007E03B681A1D3A607A68111D796019
:1018F00012681A603B680A4A9342F3D309480A49BE
:101900004FF000028842B8BF40F8042BFADB00F029
:1019100011F80837BD4680BD407300080000002064
:101920007C0000207C0000208C05002080B400AFEB
:10193000FEE700BF80B500AF01F044F801F07AFC8B
:10194000032001F03FFF002001F0AAFE00F096FC0A
:1019500001F0C6FA01F0DAFA01F088FB01F064FB4D
:1019600001F024FB01F0E6FA014800F0BFF9FEE7C0
:101970000020014080B483B000AF78600B46FB705C
:10198000FB78002B06D00949084B1A6B7B68134380
:101990000B6306E00549054B1A6B7B68DB4313407C
:1019A0000B630C37BD465DF8047B7047003802407E
:1019B00080B483B000AF78600B46FB70FB78002BDF
:1019C00006D00949084B1A6C7B6813430B6406E088
:1019D0000549054B1A6C7B68DB4313400B640C37DD
:1019E000BD465DF8047B70470038024080B483B088
:1019F00000AF78600B46FB70FB78002B06D00949DE
:101A0000084B5A6C7B6813434B6406E00549054B51
:101A10005A6C7B68DB4313404B640C37BD465DF862
:101A2000047B70470038024080B485B000AF786016
:101A300039600023FB600023FB727B685B68FB60FE
:101A4000FB6823F0407323F48073FB603B681B79D1
:101A50001A023B681B681343FA681343FB607B68F8
:101A6000FA685A607B689B68FB60FA68174B134002
:101A7000FB603B681A693B68DB681A433B689B68FC
:101A80001A433B685B795B001343FA681343FB60BE
:101A90007B68FA689A607B68DB6AFB60FB6823F40A
:101AA0007003FB603B681B7D013BDAB2FB7A13439A
:101AB000FB72FB7A1B05FA681343FB607B68FA68CC
:101AC000DA621437BD465DF8047B7047FDF7FFC04E
:101AD00080B485B000AF78600023FB600E4B5B687C
:101AE000FB60FA680D4B1340FB607B681A687B68EB
:101AF0005B681A437B689B681A437B68DB68134307
:101B0000FA681343FB60044AFB6853601437BD4610
:101B10005DF8047B704700BF00230140E030FCFF0C
:101B200080B483B000AF78600B46FB70FB78002B6D
:101B300006D07B689B6843F001027B689A6005E0F1
:101B40007B689B6823F001027B689A600C37BD4676
:101B50005DF8047B704700BF80B485B000AF78604B
:101B6000084611461A460346FB700B46BB701346E7
:101B70007B700023FB600023BB60FB78092B23D91B
:101B80007B68DB68FB60FB78A3F10A0213465B000D
:101B90001344072202FA03F3BB60BB68DB43FA6815
:101BA0001340FB607978FB78A3F10A0213465B00CF
:101BB000134401FA03F3BB60FA68BB681343FB608C
:101BC0007B68FA68DA601EE07B681B69FB60FA7864
:101BD00013465B001344072202FA03F3BB60BB68A1
:101BE000DB43FA681340FB607978FA7813465B00B0
:101BF000134401FA03F3BB60FA68BB681343FB604C
:101C00007B68FA681A61BB78062B21D87B685B6B0E
:101C1000FB60BB785A1E13469B0013441F2202FA36
:101C200003F3BB60BB68DB43FA681340FB60F978E1
:101C3000BB785A1E13469B00134401FA03F3BB60A2
:101C4000FA68BB681343FB607B68FA685A6347E035
:101C5000BB780C2B21D87B681B6BFB60BB78DA1F31
:101C600013469B0013441F2202FA03F3BB60BB68B8
:101C7000DB43FA681340FB60F978BB78DA1F134640
:101C80009B00134401FA03F3BB60FA68BB6813437B
:101C9000FB607B68FA681A6322E07B68DB6AFB60A2
:101CA000BB78A3F10D0213469B0013441F2202FAD6
:101CB00003F3BB60BB68DB43FA681340FB60F97851
:101CC000BB78A3F10D0213469B00134401FA03F302
:101CD000BB60FA68BB681343FB607B68FA68DA6232
:101CE0001437BD465DF8047B704700BF80B483B0F5
:101CF00000AF78607B689B6843F080427B689A60A5
:101D00000C37BD465DF8047B704700BF80B483B0DC
:101D100000AF78600B46FB70FB78002B06D07B6829
:101D20009B6843F480727B689A6005E07B689B68DF
:101D300023F480727B689A600C37BD465DF8047BA3
:101D4000704700BF80B483B000AF78600B46FB7073
:101D5000FB78002B06D07B689B6843F400727B689D
:101D60009A6005E07B689B6823F400727B689A6048
:101D70000C37BD465DF8047B704700BF80B485B06A
:101D800000AF786039607B68174A93420AD8174BD6
:101D9000FB607A68164B1344164AA2FB03231B0907
:101DA000BB6009E0144BFB607A68144B1344114A82
:101DB000A2FB03231B09BB60BB68032B05D9FB688F
:101DC0000433FB60BB68043BBB60FB683A6802F00D
:101DD0003D020B48B968014409788A401A601437FB
:101DE000BD465DF8047B70470F6402400860024006
:101DF000F09FFDBFABAAAAAA08640240F09BFDBFFA
:101E0000404A000880B487B000AF78603960002392
:101E10007B6100233B610023FB607B681B4A93428C
:101E20000AD81B4B3B617A681A4B13441A4AA2FB2F
:101E300003231B097B6109E0184B3B617A68184B4F
:101E40001344154AA2FB03231B097B617B69032B07
:101E500005D93B6904333B617B69043B7B613B698A
:101E60001B68FB600F4A7B6913441B781A46FB68AA
:101E7000D340FB60FB6803F03D03FB60FB68184642
:101E80001C37BD465DF8047B704700BF0F640240FD
:101E900000600240F09FFDBFABAAAAAA0064024006
:101EA000F09BFDBF404A000880B483B000AF78606B
:101EB0000C37BD465DF8047B704700BF80B483B02B
:101EC00000AF78600C37BD465DF8047B704700BFFB
:101ED00080B483B000AF78600C37BD465DF8047BFA
:101EE000704700BF80B483B000AF78600C37BD4648
:101EF0005DF8047B704700BF80B483B000AF7860AA
:101F00000C37BD465DF8047B704700BF80B584B0D8
:101F100000AF786078683D21FFF774FF0346FB81CE
:101F200078683D21FFF72AFFFB8903F02003002B8F
:101F300008D07B681B6803F01003002B02D0786880
:101F4000FFF7B2FFFB8903F01003002B08D07B687A
:101F50001B6803F00803002B02D07868FFF7AEFF80
:101F6000FB8903F00803002B08D07B681B6803F093
:101F70000403002B02D07868FFF7AAFFFB8903F067
:101F80000403002B08D07B681B6803F00203002BBE
:101F900002D07868FFF7A6FFFB8903F00103002B4E
:101FA00008D07B685B6903F08003002B02D078685F
:101FB000FFF7A2FF1037BD4680BD00BF80B500AF60
:101FC0000148FFF7A3FF80BD1060024080B500AF5D
:101FD0000148FFF79BFF80BD2860024080B500AF3D
:101FE0000148FFF793FF80BD4060024080B500AF1D
:101FF0000148FFF78BFF80BD5860024080B500AFFD
:102000000148FFF783FF80BD7060024080B500AFDC
:102010000148FFF77BFF80BD8860024080B500AFBC
:102020000148FFF773FF80BDA060024080B500AF9C
:102030000148FFF76BFF80BDB860024080B500AF7C
:102040000148FFF763FF80BD2864024080B500AF00
:102050000148FFF75BFF80BD4064024080B500AFE0
:102060000148FFF753FF80BD5864024080B500AFC0
:102070000148FFF74BFF80BD7064024080B500AFA0
:102080000148FFF743FF80BD8864024080B500AF80
:102090000148FFF73BFF80BDA064024080B500AF60
:1020A0000148FFF733FF80BDB864024080B584B0BB
:1020B00002AF78600B46FB707B68094A93420BD1F4
:1020C000FA784FF482730093002301930448114679
:1020D0000022002300F042F80837BD4680BD00BF53
:1020E0000030014080B485B000AF78600B46FB70D3
:1020F0007B681B889BB203F40063002B14BF012391
:102100000023DBB2FB737B681B889BB223F0400388
:102110009AB27B681A80FB78012B08D17B681B88F8
:102120009BB243F400639AB27B681A8007E07B6835
:102130001B889BB223F400639AB27B681A807B6889
:102140001B889BB243F040039AB27B681A80FB7BEA
:1021500018461437BD465DF8047B704780B588B0DB
:1021600000AF7860084611461A460346FB700B46DE
:10217000BB7013463B8007F10C03184600F0FAFFD2
:102180007B68294A93420BD1284A284B5B6C43F465
:1021900080535364FB78184600F04AF800233B82D2
:1021A0003B883B830023BB81BB8D7B833B8DFB81C5
:1021B0004FF40073FB82BB78002B04D100237B8299
:1021C0000023BB8216E0BB78012B04D100237B8265
:1021D0000123BB820EE0BB78022B04D102237B8259
:1021E0000023BB8206E0BB78032B03D102237B8252
:1021F0000123BB827B681B889BB223F040039AB209
:102200007B681A8007F10C037868194600F06EFFAE
:102210007B681B889BB243F040039AB27B681A80AC
:102220002037BD4680BD00BF00300140003802406D
:1022300080B584B002AF0346FB71FB79002B09D156
:1022400003230093052301930A48E0210022002381
:1022500001F094FDFB79012B09D1032300930523A1
:102260000193054838210022002301F087FD08373B
:10227000BD4680BD000002400004024080B584B02D
:1022800002AF40F21D530093002000214FF4A072D2
:10229000142301F0BBFC4FF6FF73009300200021D4
:1022A000A022142301F07CFC4FF6FF730093A020C2
:1022B000002140F23F12142301F072FCBA4B5B681C
:1022C000032B3FD801A252F823F000BFDD22000803
:1022D000F7220008112300082B2300084FF6FF7394
:1022E000009340F21D53019314200621AF4AB04BD6
:1022F00001F0ACFA26E04FF6FF73009340F21D5355
:10230000019314200621AB4AA94B01F09FFA19E072
:102310004FF6FF73009340F21D53019314200621E2
:10232000A54AA34B01F092FA0CE04FF6FF7300931D
:1023300040F21D53019314200621A04A9C4B01F04A
:1023400085FA00BF984B1B680F2B00F2F38001A2A7
:1023500052F823F095230008AF230008C923000892
:10236000E3230008FD230008172400083124000897
:102370004B240008652400087F24000899240008E5
:10238000B3240008CD240008E72400080125000834
:102390001B2500084FF6FF73009340F21D53019375
:1023A000B4200621864A824B01F050FAC2E04FF673
:1023B000FF73009340F21D530193B4200621814A1C
:1023C0007B4B01F043FAB5E04FF6FF73009340F208
:1023D0001D530193B42006217B4A754B01F036FA58
:1023E000A8E04FF6FF73009340F21D530193B42011
:1023F0000621764A6E4B01F029FA9BE04FF6FF73F7
:10240000009340F21D530193B4200621704A684B9B
:1024100001F01CFA8EE04FF6FF73009340F21D535B
:102420000193B42006216B4A614B01F00FFA81E061
:102430004FF6FF73009340F21D530193B420062121
:10244000654A5B4B01F002FA74E04FF6FF730093AC
:1024500040F21D530193B4200621604A544B01F011
:10246000F5F967E04FF6FF73009340F21D530193B7
:10247000B42006215A4A4E4B01F0E8F95AE04FF6D3
:10248000FF73009340F21D530193B4200621554A77
:10249000474B01F0DBF94DE04FF6FF73009340F23C
:1024A0001D530193B42006214F4A414B01F0CEF950
:1024B00040E04FF6FF73009340F21D530193B420A8
:1024C00006214A4A3A4B01F0C1F933E04FF6FF7357
:1024D000009340F21D530193B4200621444A344B2B
:1024E00001F0B4F926E04FF6FF73009340F21D535C
:1024F0000193B42006213F4A2D4B01F0A7F919E0C2
:102500004FF6FF73009340F21D530193B420062150
:10251000394A274B01F09AF90CE04FF6FF7300930C
:1025200040F21D530193B4200621344A204B01F0A0
:102530008DF900BF40F21D5300934FF482701521B6
:102540004FF4A072F02301F061FB4FF6FF7300938C
:102550004FF4827014214FF48C72512301F020FB50
:102560004FF6FF7300934FF48C7014214FF4967262
:10257000332301F015FB4FF6FF7300934FF48C707B
:1025800033214FF49672512301F00AFB4FF6FF738B
:1025900000934FF48C7014214FF4A072512301F07A
:1025A000FFFA0837BD4680BD48000020544A0008A5
:1025B00064000020604A00086C4A0008784A00085D
:1025C000804A0008884A0008904A00089C4A00088F
:1025D000A84A0008B44A0008C04A0008CC4A0008CB
:1025E000D84A0008E04A0008E84A0008F04A000813
:1025F000FC4A0008084B0008144B0008204B000858
:1026000090B589B000AF786000233B6100237B6107
:102610000023BB6101200121FFF7ACF90123BB605E
:1026200001233B730023BB7301237B730023FB73E4
:1026300007F108038A48194600F01AF98848012171
:1026400000F0A4F91023BB600023BB7307F108035B
:102650008348194600F00CF98148102100F0A4F9D4
:102660004FF40073BB6000233B730023BB73012353
:102670007B730123FB7307F108037948194600F0C7
:10268000F7F877484FF4007100F08EF97548012192
:10269000FDF774FE0023FB610AE03C6971480121EB
:1026A000FDF748FF034623443B61FB690133FB61AF
:1026B000FB69092BF1DD3B696B4A82FB0312921027
:1026C000DB17D31A3B614FF40073BB6001233B73EC
:1026D0000023BB7301237B730023FB7307F1080303
:1026E0005F48194600F0C4F85D484FF4007100F0EF
:1026F0005BF93B69002B01DA00233B610223BB60DD
:1027000001233B730023BB7301237B730023FB7303
:1027100007F108035248194600F0AAF85048022170
:1027200000F034F94FF40073BB600023BB7307F172
:1027300008034B48194600F09BF849484FF40071D4
:1027400000F032F91023BB6000233B730023BB73FE
:1027500001237B730123FB7307F1080340481946EB
:1027600000F086F83E48102100F01EF93D48002197
:10277000FDF704FE0023FB610AE07C693948002173
:10278000FDF7D8FE034623447B61FB690133FB61FF
:10279000FB69092BF1DD7B69334A82FB031292103E
:1027A000DB17D31A7B611023BB6001233B7300232B
:1027B000BB7301237B730023FB7307F108032848D5
:1027C000194600F055F82648102100F0EDF87B6915
:1027D000002B01DA00237B613B69A3F5FA73224ADF
:1027E00082FB03129210DB17D31A3B617B69A3F5BE
:1027F0002A73184601F0F6FD02460B4610461946AC
:1028000015A3D3E9002301F07DFF02460B464FF0EC
:102810000000164901F098FC02460B461046194686
:1028200002F058F803467B613B69B3F5A07F02DBF9
:102830007B69052B02DD0123BB6101E00023BB6145
:102840007B681C4607F1100393E8070084E8070043
:1028500078682437BD4690BDCDCCCCCCCCCC2840BC
:1028600000000240002001406766666600006E407E
:1028700080B487B000AF7860396000237B610023AB
:102880003B610023FB6000237B6176E07B690122D2
:1028900002FA03F33B613B681A683B691340FB6033
:1028A000FA683B699A4265D17B681A687B695B006C
:1028B000194603238B40DB431A407B681A607B6810
:1028C0001A683B681B7919467B695B0001FA03F3C0
:1028D0001A437B681A603B681B79012B03D03B6865
:1028E0001B79022B2ED17B689A687B695B001946A5
:1028F00003238B40DB431A407B689A607B689A68AD
:102900003B685B7919467B695B0001FA03F31A4364
:102910007B689A607B685A687B699BB21946012381
:102920008B40DB431A407B685A607B685B683A687F
:10293000927911467A6992B201FA02F292B21A437E
:102940007B685A607B68DA687B699BB25B00032115
:1029500001FA03F3DB431A407B68DA607B68DA68CC
:102960003B68DB7919467B695B0001FA03F31A4384
:102970007B68DA607B6901337B617B690F2B85D9CA
:102980001C37BD465DF8047B704700BF80B483B040
:1029900000AF78600B467B807B687A881A830C379F
:1029A000BD465DF8047B704780B483B000AF7860AB
:1029B0000B467B807B687A885A830C37BD465DF86E
:1029C000047B704780B500AF114A114B1B6843F080
:1029D000010313600E4B00229A600D4A0C4B1B68DA
:1029E00023F0847323F480331360094B094A5A603F
:1029F000074A074B1B6823F480231360044B002213
:102A0000DA6000F00BF8044B4FF000629A6080BD72
:102A1000003802401030002400ED00E080B483B0A4
:102A200000AF00237B6000233B60354A344B1B68BA
:102A300043F480331360324B1B6803F400333B6074
:102A40007B6801337B603B68002B03D17B68B3F567
:102A5000A06FF0D12A4B1B6803F40033002B02D087
:102A600001233B6001E000233B603B68012B42D126
:102A7000234A234B1B6C43F080531364214A214BA0
:102A80001B6843F4804313601D4A1D4B9B68936091
:102A90001B4A1B4B9B6843F400439360184A184B36
:102AA0009B6843F4A0539360154B174A5A60144A2D
:102AB000134B1B6843F08073136000BF104B1B68FF
:102AC00003F00073002BF9D0104B40F205621A603E
:102AD0000B4A0B4B9B6823F003039360084A084B97
:102AE0009B6843F00203936000BF054B9B6803F0B3
:102AF0000C03082BF9D10C37BD465DF8047B7047F9
:102B0000003802400070004019544007003C024069
:102B100080B485B000AF786039600023FB607B68CB
:102B20001B68FB60FA68244B1340FB603B681A6823
:102B30003B68DB681A433B685B691A433B689B69E7
:102B40001A433B68DB691A433B681B6A1A433B68BC
:102B50005B6A1A433B689B6A1A433B685B6B1A4388
:102B60003B689B6B1343FA681343FB607B68FA680E
:102B70001A607B685B69FB60FB6823F00703FB60FE
:102B80003B68DA6A3B681B6B1343FA681343FB60CC
:102B90007B68FA685A613B681A697B685A603B68CF
:102BA0005A687B689A603B689A687B68DA60143779
:102BB000BD465DF8047B70473F801CF080B483B055
:102BC00000AF78600B46FB70FB78002B06D07B686B
:102BD0001B6843F001027B681A6005E07B681B6894
:102BE00023F001027B681A600C37BD465DF8047B58
:102BF000704700BF80B485B000AFF860B96013467D
:102C0000FB71BB6803F08003002B0FD0FB79002B16
:102C100006D0FB685B6943F08002FB685A6105E0FF
:102C2000FB685B6923F08002FB685A61BB68802BFC
:102C300014D0FB79002B08D0FB681A68BB6803F03E
:102C40001E031A43FB681A6008E0FB681A68BB6839
:102C500003F01E03DB431A40FB681A601437BD46BD
:102C60005DF8047B704700BF80B487B000AF786028
:102C700039600023FB750023FB600023BB607B6889
:102C8000224A934202D8224B3B6101E0214B3B6137
:102C90003B6823F0F02323F0C313002B0AD03B68DA
:102CA000DB0A03F01E03FB607B681A68FB681340B5
:102CB000BB6004E07B685B6903F08003BB603B683A
:102CC00003F00053002B03D03B695B68FB6002E01C
:102CD0003B691B68FB60FB6823F0F02323F0821341
:102CE000FB60FA683B681340002B05D0BB68002BE3
:102CF00002D00123FB7501E00023FB75FB7D184624
:102D00001C37BD465DF8047B704700BF0F6402406E
:102D1000006002400064024080B485B000AF78607B
:102D200039607B68104A934202D8104BFB6001E087
:102D30000F4BFB603B6803F00053002B07D03B6850
:102D400023F0F02323F08213FA68D36006E03B6897
:102D500023F0F02323F08213FA6893601437BD4602
:102D60005DF8047B704700BF0F64024000600240C2
:102D70000064024080B586B000AF4FF08040002173
:102D800001F0A2F9554B1B68102B00F28A8001A2BA
:102D900052F823F0D92D0008E72D0008F52D000882
:102DA000032E0008112E00081F2E00082B2E0008ED
:102DB000372E0008432E00084F2E00085B2E000817
:102DC000672E0008712E00087B2E0008852E000853
:102DD0008F2E0008992E000841F2FF437B6140F6D8
:102DE00034433B615DE040F67F237B6140F6C313D3
:102DF0003B6156E040F23F537B6140F6C3133B61B9
:102E00004FE040F29F237B6140F6C3133B6148E0F3
:102E100040F24F137B6140F2CF733B6141E0A72347
:102E20007B6140F2CF733B613BE053237B6140F217
:102E3000CF733B6135E029237B6140F23F633B6107
:102E40002FE014237B6140F23F633B6129E01423B0
:102E50007B6140F21F333B6123E014237B6140F22E
:102E60003F133B611DE014237B619F233B6118E00E
:102E700014237B614F233B6113E014237B611F23E9
:102E80003B610EE014237B610F233B6109E00023CB
:102E90007B6101233B6104E005237B6101233B61EE
:102EA00000BF3B69BB607B699BB2BB800023BB81D9
:102EB0000023FB803B1D4FF08040194601F060F875
:102EC0004FF08040012101F0DFF84FF080400121F8
:102ED00001F0FAF81837BD4680BD00BF4800002059
:102EE00080B500AF4FF480000121FEF743FD0220C2
:102EF0000121FEF73FFD4FF480700121FEF776FDC2
:102F000001200121FEF754FD80BD00BF80B582B0D5
:102F100000AF01233B6003233B710023FB713B4661
:102F200003481946FFF7A4FC0837BD4680BD00BF23
:102F30000004024080B58AB000AF0023BB610023CB
:102F4000FB6100233B6200237B6207F118031846F4
:102F5000FEF7BEFD00233B6000233B7100237B7125
:102F60004FF08053BB604FF0C063FB6000233B61B8
:102F700001233B753B460C481946FEF755FD0A48B0
:102F8000082101220023FEF7E7FD07480121FEF793
:102F9000D9FE05480121FEF7B9FE03480121FEF7DD
:102FA000BFFD2837BD4680BD0020014080B590B0F0
:102FB00000AF00237B60194BFB60194BBB60002303
:102FC0003B614FF496737B610023BB614FF48063D8
:102FD000FB614FF400633B624FF400537B624FF49C
:102FE0008073BB624FF40033FB6200233B63012319
:102FF0007B630023BB630023FB633B1D0948194629
:10300000FFF786FD074818210122FFF7F3FD054869
:103010000121FFF7D3FD4037BD4680BDB800002039
:103020004C2001401064024080B584B000AF3B1DCD
:10303000184601F00FF80123BB600023BB8000237A
:10304000BB810023FB803B1D4FF08040194600F000
:1030500097FF4FF08040202101F056F84FF080405C
:10306000012101F031F81037BD4680BD80B582B036
:1030700000AF38233B7100237B710023BB71012318
:10308000FB713B1D184600F0F7FD0837BD4680BDBB
:1030900080B500AF11481249FFF7E6FD0346002B4B
:1030A00003D00E480E49FFF737FE0C480D49FFF7D5
:1030B000DBFD0346002B10D00B480021FEF726FE57
:1030C000FEF792F9FDF716FCFFF734FF0648FEF70E
:1030D0000DFE02480349FFF71FFE80BD1064024049
:1030E00010400010208000100020014080B485B006
:1030F00000AF786039600023FB817B681B88FB810F
:10310000FB8903F44153FB813B681A883B685B8869
:1031100013439AB23B689B8813439AB23B68DB889F
:1031200013439AB23B681B8913439AB23B685B898D
:1031300013439AB23B689B8913439AB23B68DB897D
:1031400013439AB2FB891343FB817B68FA891A8087
:103150007B689B8B9BB223F400639AB27B689A8353
:103160003B681A8A7B681A821437BD465DF8047B77
:10317000704700BF80B483B000AF78607B680022E6
:103180001A807B6800225A807B6800229A807B68C4
:103190000022DA807B6800221A817B6800225A8133
:1031A0007B6800229A817B680022DA817B68072293
:1031B0001A820C37BD465DF8047B704780B483B03B
:1031C00000AF78600B46FB707B681B889BB203F0F6
:1031D0004003002B01D1002325E000BF7B681B8941
:1031E0009BB203F00303002BF8D07B681B899BB2D2
:1031F00003F08003002BF1D1FB789AB27B689A81AF
:1032000000BF7B681B899BB203F00303002BF8D03F
:103210007B681B899BB203F08003002BF1D17B6894
:103220009B899BB2DBB218460C37BD465DF8047B28
:10323000704700BF80B582B002AF00230093012326
:1032400001931F4880210122002300F075FD002317
:103250000093012301931B4840210122002300F029
:103260006BFD012300930023019317484FF4805115
:103270000122002300F060FD12484021FFF786FB89
:1032800012480021FEF712FF1048FCF77DFF00F006
:1032900025F80F4B00221A800D4B1A880D4B1A800F
:1032A0000D4BF0221A800C4B4FF4A0725A800A4B3F
:1032B00001221A714FF6FF7000F0F2F9BD4680BD91
:1032C0000008024000040240000C024000300140AF
:1032D0008A050020800500208405002080B500AF0D
:1032E00099484FF48051FFF75FFB44F6206000F0EF
:1032F00059FA95484FF48051FFF748FB44F6206097
:1033000000F050FA012000F023F94CF2503000F0A8
:1033100049FACB2000F01CF9392000F039F92C20B3
:1033200000F036F9002000F033F9342000F030F9D5
:10333000022000F02DF9CF2000F00AF9002000F063
:1033400027F9C12000F024F9302000F021F9E8200D
:1033500000F0FEF8852000F01BF9002000F018F9BD
:10336000782000F015F9EA2000F0F2F8002000F0D3
:103370000FF9002000F00CF9ED2000F0E9F86420CE
:1033800000F006F9032000F003F9122000F000F924
:10339000812000F0FDF8F72000F0DAF8202000F09E
:1033A000F7F8C02000F0D4F8232000F0F1F8C12095
:1033B00000F0CEF8102000F0EBF8C52000F0C8F8BF
:1033C0003E2000F0E5F8282000F0E2F8C72000F0E9
:1033D000BFF8862000F0DCF8362000F0B9F848206D
:1033E00000F0D6F83A2000F0B3F8552000F0D0F8FD
:1033F000B12000F0ADF8002000F0CAF8182000F06D
:10340000C7F8B62000F0A4F8082000F0C1F8822028
:1034100000F0BEF8272000F0BBF8F22000F098F88A
:10342000002000F0B5F82A2000F092F8002000F00B
:10343000AFF8002000F0ACF8002000F0A9F8EF2071
:1034400000F0A6F82B2000F083F8002000F0A0F890
:10345000002000F09DF8012000F09AF83F2000F0D5
:1034600097F8262000F074F8012000F091F8E02091
:1034700000F06EF80F2000F08BF8312000F088F893
:103480002B2000F085F80C2000F082F80E2000F0D0
:103490007FF8082000F07CF84E2000F079F8F12049
:1034A00000F076F8372000F073F8072000F070F88D
:1034B000102000F06DF8032000F06AF80E2000F0F4
:1034C00067F8092000F064F8002000F061F8E120BE
:1034D00000F03EF8002000F05BF80E2000F058F8F5
:1034E000142000F055F8032000F052F8112000F0ED
:1034F0004FF8072000F04CF8312000F049F8C120C7
:1035000000F046F8482000F043F8082000F040F8AA
:103510000F2000F03DF80C2000F03AF8312000F0C8
:1035200037F8362000F034F80F2000F031F8112081
:1035300000F00EF8054800F035F9292000F008F8F1
:103540002C2000F005F880BD000C024040420F0026
:1035500080B582B000AF0346FB710A488021FFF7B7
:1035600023FA09484021FFF71FFAFB79074819465B
:10357000FFF724FE04484021FFF708FA0837BD464C
:1035800080BD00BF0008024000040240003001403E
:1035900080B582B000AF0346FB710A488021FFF777
:1035A000F5F909484021FFF7FFF9FB79074819466B
:1035B000FFF704FE04484021FFF7E8F90837BD464D
:1035C00080BD00BF000802400004024000300140FE
:1035D00080B582B000AF03463A60FB800B46BB80EB
:1035E000F888B988FA88BB8800F012F82C20FFF719
:1035F000AFFF3B681B0ADBB21846FFF7C9FF3B6809
:10360000DBB21846FFF7C4FF0837BD4680BD00BFD8
:1036100090B583B000AF0446084611461A462346CB
:10362000FB800346BB800B467B8013463B802A20F1
:10363000FFF78EFFFB881B0A9BB2DBB21846FFF731
:10364000A7FFFB88DBB21846FFF7A2FF7B881B0AA7
:103650009BB2DBB21846FFF79BFF7B88DBB21846B4
:10366000FFF796FF2B20FFF773FFBB881B0A9BB267
:10367000DBB21846FFF78CFFBB88DBB21846FFF7BA
:1036800087FF3B881B0A9BB2DBB21846FFF780FF1F
:103690003B88DBB21846FFF77BFF0C37BD4690BD79
:1036A00090B585B002AF7860084B1B88013B9AB299
:1036B000064B5C887B689BB2009300200021234668
:1036C00000F006F80C37BD4690BD00BF8405002011
:1036D00090B585B000AF0446084611461A46234609
:1036E000FB800346BB800B467B8013463B80F888FB
:1036F000B9887A883B88FFF78BFF2C20FFF728FFDB
:103700007A88FB88D31A01333988BA888A1A013239
:1037100002FB03F3FB6020484021FFF745F91F48F7
:103720008021FFF733F91E480121FEF7DBFCFB681F
:103730004FF6FF72934228BF13469BB23A8C18484B
:1037400011461A46FCF770FD00BF1548FCF7C4FD92
:103750000346002BF9D1FB68B3F5803F10D3FB681B
:103760009BB201339BB23A8C0D4811461A46FCF7C6
:103770005BFD00BF0A48FCF7AFFD0346002BF9D103
:1037800005484021FFF702F905480021FEF7AAFC91
:103790001437BD4690BD00BF00040240000802403F
:1037A0000030014080B483B000AF786002E07B68F5
:1037B000013B7B607B68002BF9D10C37BD465DF87F
:1037C000047B704780B582B000AF0346FB713620A2
:1037D000FFF7BEFEFB79002B03D15820FFF7D8FE80
:1037E00013E0FB79012B03D18820FFF7D1FE0CE019
:1037F000FB79022B03D12820FFF7CAFE05E0FB79F5
:10380000032B02D1E820FFF7C3FEFB79002B02D087
:10381000FB79012B0AD10C4BF0221A800A4B4FF492
:10382000A0725A80084B01221A7109E0064B4FF42E
:10383000A0721A80044BF0225A80034B00221A71A6
:103840000837BD4680BD00BF8405002080B588B024
:1038500002AFBA607B600346FB810B46BB81FB89EC
:10386000FB82234AFB891380224ABB89138038E0FC
:10387000BB681B780A2B1DD17B685B789AB21D4B05
:103880001B8813449BB201339AB21A4B1A80BB684F
:1038900001331B780D2B06D1154B00221A80BB6813
:1038A0000133BB6002E0124AFB8A1380BB6801331C
:1038B000BB6016E0BB681B780D2B03D1BB680133DE
:1038C000BB600EE00A4B18880A4B1988BB685A1C6B
:1038D000BA601A783B6A00937B6A01937B6800F0B8
:1038E0000BF8BB681B78002BC2D11837BD4680BDD2
:1038F000800500208A050020B0B58AB002AF7B6049
:103900000346FB810B46BB811346FB72404AFB8991
:103910001380404ABB8913803D4B1B881A467B6845
:103920001B7813443C4A128893420BDD7B685B781A
:103930009AB2384B1B8813449AB2364B1A80344BD8
:1039400000221A80324B1888324B19887B681B780A
:103950009AB22F4B1B8813449DB27B685B789AB256
:103960002C4B1B8813449CB27B6B9BB200932A4662
:103970002346FFF7ADFE0023FB6136E07B685A6803
:10398000FB7A203B7968497801FB03F31946FB6910
:103990000B445B0013441B887B610023BB611BE06D
:1039A000BB697A6902FA03F303F40043002B10D0D9
:1039B000BB699AB2164B1B88134499B2FB699AB241
:1039C000144B1B8813449BB2084619463A6BFFF709
:1039D000FFFDBB690133BB617B681B781A46BB697D
:1039E0009A42DDD8FB690133FB617B685B781A463C
:1039F000FB699A42C2D87B681B789AB2044B1B8839
:103A000013449AB2024B1A802037BD46B0BD00BFA6
:103A1000800500208A0500208405002090B589B02B
:103A200002AF0446084611461A462346FB80034669
:103A3000BB800B467B8013463B80584B1B88FA8823
:103A40009A4203D3554B1B88013BFB80534B1B8889
:103A50007A889A4203D3514B1B88013B7B804F4BA2
:103A60005B88BA889A4203D34C4B5B88013BBB808E
:103A70004A4B5B883A889A4203D3484B5B88013BA8
:103A80003B80FA887B889A4205D9FB88BB827B8879
:103A9000FB80BB8A7B80BA883B889A4205D9BB8869
:103AA000BB823B88BB80BB8A3B807A88FB88D31A69
:103AB0009BB27B823A88BB88D31A9BB23B82B7F910
:103AC0001230002B03D0B7F91030002B0AD1BB6A9B
:103AD0009BB2F888B9887A883C8800932346FFF720
:103AE000F7FD58E0FA887B889A4201D2012301E071
:103AF0004FF6FF73FB81BA883B889A4201D20123BB
:103B000001E04FF6FF73BB81B7F91220B7F910300F
:103B10009A4206DDB7F91230DA0F13445B109BB2FC
:103B200006E0B7F910305B42DA0F13445B109BB22A
:103B3000FB82FA88BB8810461946BA6AFFF748FD2F
:103B4000FA887B889A4204D1BA883B889A4200D18D
:103B500021E0FB8A7B81B7F90A20B7F912305B427A
:103B60009A4208DDFA8A3B8AD31A9BB2FB82FA8911
:103B7000FB881344FB80B7F90A20B7F910309A424A
:103B800008DAFA8A7B8A13449BB2FB82BA89BB8823
:103B90001344BB80CDE71C37BD4690BD8405002093
:103BA00090B585B002AF0446084611461A46234632
:103BB000FB800346BB800B467B8013463B80F88826
:103BC000B9887A88BC88BB6900932346FFF726FF33
:103BD000F888B988FA883C88BB6900932346FFF7C8
:103BE0001DFF7888B9887A883C88BB690093234692
:103BF000FFF714FFF88839887A883C88BB690093FE
:103C00002346FFF70BFF0C37BD4690BD90B587B03C
:103C100002AF0446084611461A462346FB80034677
:103C2000BB800B467B8013463B80FA887B889A4298
:103C300005D9FB88FB817B88FB80FB897B80BA8868
:103C40003B889A4205D9BB88FB813B88BB80FB89B6
:103C50003B803B6A9BB2F888B9887A883C8800939D
:103C60002346FFF735FD03484021FEF78FFE14374A
:103C7000BD4690BD0004024080B485B000AF7860BE
:103C80000023FB730023BB730F237B737B68DB78FC
:103C9000002B38D0264BDB68DB4303F4E0631B0AC0
:103CA000FB73FB7BC3F10403BB737A7BFB7B42FAA0
:103CB00003F37B737B685B781A46BB7B02FA03F3E2
:103CC000FB737B689A787B7B1340DAB2FB7B1343F0
:103CD000FB73FB7B1B01FB73164A7B681B78134449
:103CE000FA7B83F80023134A7B681B785B09DBB2FD
:103CF00018467B681B7803F01F03012101FA03F3C8
:103D000042F820300FE00B497B681B785B09DBB27F
:103D100018467B681B7803F01F0301229A4000F1CC
:103D2000200341F823201437BD465DF8047B70471B
:103D300000ED00E000E100E090B585B002AF7860F2
:103D4000084611461A4603467B800B467B70134695
:103D50003B707B88002B00D10DE0786800F074F890
:103D600079887A783C783B7E00933B7F0193786832
:103D7000234600F07FF80C37BD4690BD90B587B064
:103D800002AF7860084611461A4603467B800B4610
:103D90007B7013463B707B88002B00D13EE0786837
:103DA00000F052F80023FB6028E07A88FB6842FAB2
:103DB00003F303F00103002B00D11CE0FB68DA08D9
:103DC000FB68D9087B68083153F82130F96801F0A5
:103DD0000701890008460F218140C9430B4097F82D
:103DE0002410F86800F007008000814019437B68C8
:103DF000083243F82210FB680133FB60FB680F2B8D
:103E0000D3D97A887C783B78009397F82030019357
:103E1000786811460222234600F02CF81437BD467C
:103E200090BD00BF80B483B000AF78607B6803F1C1
:103E30003F4303F57E039B0A9BB218460C37BD46F1
:103E40005DF8047B704700BF80B582B000AF78603A
:103E50007868FFF7E7FF03461A46012303FA02F1E9
:103E6000034A034B1B6B0B4313630837BD4680BDEE
:103E70000038024080B584B000AF78600846114633
:103E80001A4603467B800B467B7013463B7078686E
:103E9000FFF7C8FF0346BB730023FB7367E07A8814
:103EA000FB7B42FA03F303F00103002B00D15BE03C
:103EB000BB7BBA7B314931F8122090B2FA7B0121E9
:103EC00001FA02F292B201460A4392B291B22B4A2F
:103ED00022F813107B68DB68FA7B5200032101FA99
:103EE00002F2D2431340397EFA7B520001FA02F209
:103EF0001A437B68DA607B681A68FB7B5B000321EE
:103F000001FA03F3DB4313407978FA7B520001FA9C
:103F100002F21A437B681A607B78012B02D07B780F
:103F2000022B21D17B685B68FA7B012101FA02F246
:103F300092B2D24313403978FA7B01FA02F292B27C
:103F40001A437B685A607B689A68FB7B5B0003219D
:103F500001FA03F3DB431340397FFA7B520001FA85
:103F600002F21A437B689A60FB7B0133FB73FB7B95
:103F70000F2B94D91037BD4680BD00BF68050020C7
:103F800080B485B000AF786039600023FB817B6826
:103F90001B88FB817B68284A934213D07B68274AA1
:103FA00093420FD07B68B3F1804F0BD07B68244ADB
:103FB000934207D07B68234A934203D07B68224A0E
:103FC000934208D1FB8923F07003FB813B685A8838
:103FD000FB891343FB817B681C4A93420CD07B68AE
:103FE0001B4A934208D0FB8923F44073FB813B6852
:103FF0001A89FB891343FB817B68FA891A803B6825
:104000005A687B68DA623B681A887B681A857B6825
:10401000094A934203D07B68084A934204D13B6823
:104020009B7A9AB27B681A867B6801229A8214373F
:10403000BD465DF8047B704700000140000401406C
:104040000004004000080040000C00400010004048
:104050000014004080B483B000AF78607B684FF0FC
:10406000FF325A607B6800221A807B6800221A8126
:104070007B6800225A807B6800229A720C37BD460A
:104080005DF8047B704700BF80B483B000AF7860F8
:104090000B46FB70FB78002B08D07B681B889BB21B
:1040A00043F080039AB27B681A8007E07B681B8824
:1040B0009BB223F080039AB27B681A800C37BD460E
:1040C0005DF8047B704700BF80B483B000AF7860B8
:1040D0000B46FB70FB78002B08D07B681B889BB2DB
:1040E00043F001039AB27B681A8007E07B681B8863
:1040F0009BB223F001039AB27B681A800C37BD464D
:104100005DF8047B704700BF80B483B000AF786077
:104110000B467B807B689B889BB223F070039AB22E
:104120007B689A807B689B889AB27B8813439AB29B
:104130007B689A800C37BD465DF8047B704700BFF2
:1041400081F0004102E000BF83F0004330B54FEA48
:1041500041044FEA430594EA050F08BF90EA020FB5
:104160001FBF54EA000C55EA020C7FEA645C7FEA48
:10417000655C00F0E2804FEA5454D4EB5555B8BF6B
:104180006D420CDD2C4480EA020281EA030382EADC
:10419000000083EA010180EA020281EA0303362D6E
:1041A00088BF30BD11F0004F4FEA01314FF4801C41
:1041B0004CEA113102D0404261EB410113F0004F53
:1041C0004FEA03334CEA133302D0524263EB43030A
:1041D00094EA050F00F0A780A4F10104D5F1200EA8
:1041E0000DDB02FA0EFC22FA05F2801841F1000103
:1041F00003FA0EF2801843FA05F359410EE0A5F1D7
:1042000020050EF1200E012A03FA0EFC28BF4CF007
:10421000020C43FA05F3C01851EBE37101F00045BD
:1042200007D54FF0000EDCF1000C7EEB00006EEBCA
:104230000101B1F5801F1BD3B1F5001F0CD3490854
:104240005FEA30004FEA3C0C04F101044FEA4452AB
:1042500012F5800F80F09A80BCF1004F08BF5FEA32
:10426000500C50F1000041EB045141EA050130BD12
:104270005FEA4C0C404141EB010111F4801FA4F1B5
:104280000104E9D191F0000F04BF01460020B1FA0A
:1042900081F308BF2033A3F10B03B3F120020CDA42
:1042A0000C3208DD02F1140CC2F10C0201FA0CF020
:1042B00021FA02F10CE002F11402D8BFC2F1200C85
:1042C00001FA02F120FA0CFCDCBF41EA0C0190403B
:1042D000E41AA2BF01EB0451294330BD6FEA040484
:1042E0001F3C1CDA0C340EDC04F11404C4F120026F
:1042F00020FA04F001FA02F340EA030021FA04F381
:1043000045EA030130BDC4F10C04C4F1200220FAD7
:1043100002F001FA04F340EA0300294630BD21FA15
:1043200004F0294630BD94F0000F83F4801306BFDB
:1043300081F480110134013D4EE77FEA645C18BFCF
:104340007FEA655C29D094EA050F08BF90EA020F66
:1043500005D054EA000C04BF1946104630BD91EA5E
:10436000030F1EBF0021002030BD5FEA545C05D161
:104370004000494128BF41F0004130BD14F58004A0
:104380003CBF01F5801130BD01F0004545F0FE4114
:1043900041F470014FF0000030BD7FEA645C1ABF49
:1043A000194610467FEA655C1CBF0B46024650EA80
:1043B000013406BF52EA033591EA030F41F40021AC
:1043C00030BD00BF90F0000F04BF0021704730B532
:1043D0004FF4806404F132044FF000054FF0000107
:1043E00050E700BF90F0000F04BF0021704730B5C8
:1043F0004FF4806404F1320410F0004548BF40429D
:104400004FF000013EE700BF42004FEAE2014FEAF1
:1044100031014FEA02701FBF12F07F4393F07F4FCC
:1044200081F06051704792F0000F14BF93F07F4FFE
:10443000704730B54FF4607401F0004521F0004141
:1044400020E700BF50EA010208BF704730B54FF0C7
:1044500000050AE050EA010208BF704730B511F0CC
:10446000004502D5404261EB41014FF4806404F104
:1044700032045FEA915C3FF4DCAE4FF003025FEA86
:10448000DC0C18BF03325FEADC0C18BF033202EB0E
:10449000DC02C2F1200300FA03FC20FA02F001FA68
:1044A00003FE40EA0E0021FA02F11444C1E600BF07
:1044B00070B54FF0FF0C4CF4E06C1CEA11541DBFBA
:1044C0001CEA135594EA0C0F95EA0C0F00F0DEF885
:1044D0002C4481EA030621EA4C5123EA4C5350EA6A
:1044E000013518BF52EA033541F4801143F48013BB
:1044F00038D0A0FB02CE4FF00005E1FB02E506F04C
:104500000042E0FB03E54FF00006E1FB03569CF0A0
:10451000000F18BF4EF0010EA4F1FF04B6F5007FA6
:1045200064F5407404D25FEA4E0E6D4146EB060618
:1045300042EAC62141EA55514FEAC52040EA5E50A1
:104540004FEACE2EB4F1FD0C88BFBCF5E06F1ED84B
:10455000BEF1004F08BF5FEA500E50F1000041EB82
:10456000045170BD06F0004646EA010140EA02002F
:1045700081EA0301B4EB5C04C2BFD4EB0C0541EA51
:10458000045170BD41F480114FF0000E013C00F366
:10459000AB8014F1360FDEBF002001F0004170BD8A
:1045A000C4F10004203C35DA0C341BDC04F11404A3
:1045B000C4F1200500FA05F320FA04F001FA05F22F
:1045C00040EA020001F0004221F0004110EBD370FC
:1045D00021FA04F642EB06015EEA430E08BF20EA28
:1045E000D37070BDC4F10C04C4F1200500FA04F3CB
:1045F00020FA05F001FA04F240EA020001F000415D
:1046000010EBD37041F100015EEA430E08BF20EACF
:10461000D37070BDC4F1200500FA05F24EEA020E17
:1046200020FA04F301FA05F243EA020321FA04F046
:1046300001F0004121FA04F220EA020000EBD370FD
:104640005EEA430E08BF20EAD37070BD94F0000FFD
:104650000FD101F00046400041EB010111F4801F31
:1046600008BF013CF7D041EA060195F0000F18BFE2
:10467000704703F00046520043EB030313F4801F1E
:1046800008BF013DF7D043EA0603704794EA0C0FD8
:104690000CEA135518BF95EA0C0F0CD050EA4106EE
:1046A00018BF52EA4306D1D181EA030101F000416B
:1046B0004FF0000070BD50EA410606BF1046194693
:1046C00052EA430619D094EA0C0F02D150EA01369F
:1046D00013D195EA0C0F05D152EA03361CBF1046E0
:1046E00019460AD181EA030101F0004141F0FE417F
:1046F00041F470014FF0000070BD41F0FE4141F403
:10470000780170BD70B54FF0FF0C4CF4E06C1CEA02
:1047100011541DBF1CEA135594EA0C0F95EA0C0FB7
:1047200000F0A7F8A4EB050481EA030E52EA033572
:104730004FEA013100F088804FEA03334FF0805593
:1047400045EA131343EA12634FEA022245EA1115C0
:1047500045EA10654FEA00260EF000419D4208BF71
:10476000964244F1FD0404F5407402D25B084FEA1E
:104770003202B61A65EB03055B084FEA32024FF4CA
:1047800080104FF4002CB6EB020E75EB030E22BF27
:10479000B61A754640EA0C005B084FEA3202B6EBE7
:1047A000020E75EB030E22BFB61A754640EA5C0096
:1047B0005B084FEA3202B6EB020E75EB030E22BF26
:1047C000B61A754640EA9C005B084FEA3202B6EB27
:1047D000020E75EB030E22BFB61A754640EADC00E6
:1047E00055EA060E18D04FEA051545EA16754FEA48
:1047F00006164FEAC30343EA52734FEAC2025FEA66
:104800001C1CC0D111F4801F0BD141EA00014FF0F4
:1048100000004FF0004CB6E711F4801F04BF0143C5
:104820000020B4F1FD0C88BFBCF5E06F3FF6AFAEE1
:10483000B5EB030C04BFB6EB020C5FEA500C50F171
:10484000000041EB045170BD0EF0004E4EEA1131F4
:1048500014EB5C04C2BFD4EB0C0541EA045170BDFB
:1048600041F480114FF0000E013C90E645EA060E3F
:104870008DE60CEA135594EA0C0F08BF95EA0C0F6D
:104880003FF43BAF94EA0C0F0AD150EA01347FF4B5
:1048900034AF95EA0C0F7FF425AF104619462CE78C
:1048A00095EA0C0F06D152EA03353FF4FDAE1046EF
:1048B000194622E750EA410618BF52EA43067FF440
:1048C000C5AE50EA41047FF40DAF52EA43057FF4D0
:1048D000EBAE12E74FEA410212F5001215D211D5E4
:1048E0006FF47873B3EB625212D94FEAC12343F0ED
:1048F000004343EA505311F0004F23FA02F018BF6F
:10490000404270474FF00000704750EA013005D137
:1049100011F0004008BF6FF0004070474FF00000FA
:10492000704700BF4A0011D212F5001211D20DD506
:104930006FF47873B3EB62520ED44FEAC12343F0A5
:10494000004343EA505323FA02F070474FF000004F
:10495000704750EA013002D14FF0FF3070474FF0FE
:1049600000007047302E31562F6469760000000039
:10497000302E32562F64697600000000302E3556F6
:104980002F6469760000000031562F6469760000BC
:1049900032532F646976000031532F64697600002A
:1049A0003530306D532F6469760000003230306D41
:1049B000532F6469760000003130306D532F6469E5
:1049C0007600000035306D532F64697600000000DA
:1049D00032306D532F6469760000000031306D5322
:1049E0002F64697600000000356D532F64697600EE
:1049F000326D532F64697600316D532F64697600F0
:104A000035303075532F64697600000032303075D0
:104A1000532F64697600000031303075532F64697C
:104A200076000000353075532F6469760000000071
:104A3000323075532F646976000000002E2E2E0050
:104A4000000610160B0C0D0E0F10112F38393A3BC3
:104A50003C444546302E31562F64697600000000F4
:104A6000302E32562F64697600000000302E355605
:104A70002F6469760000000031562F6469760000CB
:104A800032532F646976000031532F646976000039
:104A90003530306D532F6469760000003230306D50
:104AA000532F6469760000003130306D532F6469F4
:104AB0007600000035306D532F64697600000000E9
:104AC00032306D532F6469760000000031306D5331
:104AD0002F64697600000000356D532F64697600FD
:104AE000326D532F64697600316D532F64697600FF
:104AF00035303075532F64697600000032303075E0
:104B0000532F64697600000031303075532F64698B
:104B100076000000353075532F6469760000000080
:104B2000323075532F6469760000000000000000E9
:104B30000000000000000000000000000000000075
:104B400000100010001000100010001000000010F5
:104B500000000000002800280028000000000000DD
:104B6000000000000000000000240024007C00245D
:104B70000048007C00480048000000000038005455
:104B80000050003800140054005400380010000099
:104B90000020005400580030002800540014000881
:104BA0000000000000100028002800100034004819
:104BB0000048003400000000001000100010000049
:104BC00000000000000000000000000000080010CD
:104BD00000200020002000200020002000100008FD
:104BE0000020001000080008000800080008000865
:104BF0000010002000100038001000280000000005
:104C00000000000000000000000000000010001084
:104C1000007C0010001000000000000000000000F8
:104C20000000000000000000000000100010001054
:104C3000000000000000000000000038000000003C
:104C40000000000000000000000000000000000064
:104C50000000001000000000000800080010001014
:104C60000010001000200020000000000038004468
:104C70000044005400440044004400380000000098
:104C80000010003000500010001000100010001044
:104C90000000000000380044004400040008001038
:104CA0000020007C000000000038004400040018D0
:104CB0000004000400440038000000000008001850
:104CC000002800280048007C0008000800000000C0
:104CD000007C0040004000780004000400440038DC
:104CE0000000000000380044004000780044004408
:104CF0000044003800000000007C000400080010A0
:104D000000100020002000200000000000380044B7
:104D10000044003800440044004400380000000013
:104D20000038004400440044003C000400440038C3
:104D30000000000000000000001000000000000063
:104D40000000001000000000000000000000001043
:104D50000000000000000010001000100000000023
:104D6000000C003000400030000C0000000000008B
:104D7000000000000000007C0000007C000000003B
:104D8000000000000000000000600018000400188F
:104D9000006000000000000000380044000400082B
:104DA0000010001000000010000000000038004457
:104DB000004C0054005C004000400038000000003F
:104DC00000100028002800280028007C004400442F
:104DD00000000000007800440044007800440044D3
:104DE000004400780000000000380044004000400B
:104DF00000400040004400380000000000700048FF
:104E000000440044004400440048007000000000DA
:104E1000007C00400040007C004000400040007CDE
:104E200000000000007C004000400078004000408E
:104E300000400040000000000038004400400040F6
:104E4000005C0044004400380000000000440044BE
:104E50000044007C00440044004400440000000082
:104E60000038001000100010001000100010003872
:104E7000000000000004000400040004000400041A
:104E8000004400380000000000440048005000606A
:104E9000005000480048004400000000004000406E
:104EA00000400040004000400040007C0000000046
:104EB0000044006C006C0054004400440044004472
:104EC0000000000000440064006400540054004CE2
:104ED000004C00440000000000380044004400443E
:104EE0000044004400440038000000000078004402
:104EF00000440044007800400040004000000000F2
:104F00000038004400440044004400440054003889
:104F10000004000000780044004400440078004889
:104F20000048004400000000003800440040003009
:104F3000000800040044003800000000007C00105D
:104F40000010001000100010001000100000000001
:104F5000004400440044004400440044004400383D
:104F600000000000004400440044002800280028FD
:104F700000100010000000000044004400540054E1
:104F80000054006C002800280000000000440028A5
:104F90000028001000100028002800440000000035
:104FA00000440044002800280010001000100010E9
:104FB00000000000007C0004000800100010002029
:104FC0000040007C000000000018001000100010DD
:104FD0000010001000100010001000180020002029
:104FE0000010001000100010000800080000000071
:104FF0000030001000100010001000100010001011
:1050000000100030001000280028004400000000BC
:105010000000000000000000000000000000000090
:105020000000000000000000000000FE0020001052
:105030000000000000000000000000000000000070
:105040000000000000380044003C0044004C0034E4
:10505000000000000040004000580064004400448C
:105060000064005800000000000000000038004408
:10507000004000400044003800000000000400042C
:105080000034004C00440044004C00340000000098
:105090000000000000380044007C0040004400385C
:1050A00000000000000C0010007C00100010001038
:1050B0000010001000000000000000000034004C50
:1050C00000440044004C00340004007800400040DC
:1050D0000058006400440044004400440000000004
:1050E00000100000007000100010001000100010F0
:1050F0000000000000100000007000100010001000
:1051000000100010001000E0004000400048005077
:1051100000600050004800440000000000700010D3
:10512000001000100010001000100010000000001F
:105130000000000000780054005400540054005453
:10514000000000000000000000580064004400441B
:10515000004400440000000000000000003800444B
:10516000004400440044003800000000000000003B
:1051700000580064004400440064005800400040AF
:10518000000000000034004C00440044004C003497
:1051900000040004000000000058006400400040CB
:1051A0000040004000000000000000000038004403
:1051B00000300008004400380000000000200020FB
:1051C00000780020002000200020001800000000CF
:1051D000000000000044004400440044004C00343F
:1051E00000000000000000000044004400280028E7
:1051F00000280010000000000000000000540054CF
:105200000054006C0028002800000000000000008E
:105210000044002800100010002800440000000096
:105220000000000000440044002800280010001086
:105230000010006000000000007C0008001000204A
:105240000040007C0000000000180010001000105A
:1052500000200020001000100010001800100010A6
:1052600000100010001000100010001000100010BE
:10527000003000100010001000080008001000109E
:10528000001000300000000000000074004C00001E
:10529000000000000000000000000000000000000E
:1052A00000000000000000000000000000000000FE
:1052B0000000000000000000000000000000000CE2
:1052C000000C000C000C000C000C000C000C000C7E
:1052D000000C000C0000000C000C0000000000009E
:1052E0000000001B001B001B001B001B0000000037
:1052F00000000000000000000000000000000000AE
:105300000000000000008019801980198019C07FFA
:10531000C07F80190033C07FC07F0033003300336B
:1053200000330000000000000000001E003F8075F8
:1053300080650074003C001E000780058065806564
:105340008075003F001E0004000400000000007093
:1053500000D840D8C0D880D900730006000C801B4C
:10536000C036C066C046C0068003000000000000D2
:105370000000001E003F003300330033001E000C0D
:10538000C03CC066806380618063C03E801C0000BA
:10539000000000000000000C000C000C000C000CD1
:1053A00000000000000000000000000000000000FD
:1053B0000000000000000000800000010003000663
:1053C00000060004000C000C000C000C000C000C8B
:1053D0000004000600060003000180000020001009
:1053E0000018000C000C0004000600060006000671
:1053F000000600060004000C000C0018001000203D
:105400000000000C002D003F001E003300000000D3
:10541000000000000000000000000000000000008C
:1054200000000000000000000000000C000C000C58
:10543000000CC0FFC0FF000C000C000C000C0000B2
:10544000000000000000000000000000000000005C
:10545000000000000000000000000000000000004C
:105460000000000C000C0004000400080000000014
:105470000000000000000000000000000000001E0E
:10548000001E0000000000000000000000000000FE
:10549000000000000000000000000000000000000C
:1054A00000000000000000000000000C000C0000E4
:1054B00000000000000000030003000300060006D7
:1054C00000060006000C000C000C000C0018001870
:1054D00000180000000000000000001E003F003324
:1054E000806180618061806D806D8061806180619C
:1054F0000033003F001E0000000000000000000616
:10550000000E001E003600260006000600060006FB
:10551000000600060006000600060000000000006D
:105520000000001E003F80738061806180010003E5
:105530000006000C001800300060807F807F0000B3
:10554000000000000000001C003E00630063000338
:10555000000E000E00038001800180618073003F17
:10556000001E00000000000000000006000E000EFB
:10557000001E001E0016003600360066807F807F09
:105580000006000600060000000000000000007F8A
:10559000007F006000600060006E007F806380011B
:1055A000800180618073003F001E00000000000049
:1055B0000000001E003F803380610060006E007FAD
:1055C00080738061806180618033003F001E000035
:1055D000000000000000807F807F80010003000346
:1055E00000060006000C000C000C00080018001853
:1055F00000180000000000000000001E003F806353
:10560000806180610021001E003F806180618061B7
:105610008061003F001E0000000000000000001E2E
:10562000003F00738061806180618073803F801DD6
:10563000800180610073003F001E00000000000038
:1056400000000000000000000000000C000C000042
:1056500000000000000000000000000C000C000032
:10566000000000000000000000000000000000003A
:10567000000C000C00000000000000000000000C06
:10568000000C0004000400080000000000000000FE
:1056900080008003000E003800600038000E800398
:1056A000800000000000000000000000000000007A
:1056B000000000000000807F807F00000000807FED
:1056C000807F0000000000000000000000000000DB
:1056D000000000000000000000400070001C0007F7
:1056E00080010007001C0070004000000000000066
:1056F000000000000000001F803FC071C060C000BB
:10570000C00180030007000E000C000C0000000C1C
:10571000000C0000000000000000001E003F80316F
:1057200080718063806F806D806D806F80670060A6
:105730000032003E001C0000000000000000000ECF
:10574000000E001B001B001B001B80318031803FBE
:10575000803F8031C060C060C06000000000000079
:105760000000007C007E0063006300630063007E35
:10577000007E0063806180618063007F007E0000A6
:10578000000000000000001E003F803180610060CA
:105790000060006000600060006080618031003F58
:1057A000001E0000000000000000007C007F00637D
:1057B000806380618061806180618061806100635D
:1057C0000063007E007C0000000000000000807F7D
:1057D000807F0060006000600060007F007F0060EC
:1057E000006000600060807F807F0000000000009B
:1057F0000000807F807F0060006000600060007FAC
:10580000007F0060006000600060006000600000D9
:10581000000000000000001E003F80318061006039
:105820000060006080638063806180618031803FC0
:10583000001E0000000000000000806180618061A7
:10584000806180618061807F807F80618061806114
:105850008061806180610000000000000000003F66
:10586000003F000C000C000C000C000C000C000CA5
:10587000000C000C000C003F003F00000000000086
:105880000000800180018001800180018001800191
:1058900080018001806180618073003F001E0000F4
:1058A000000000000000C0608061006300660066C8
:1058B000006C0078007C0066006600638061806197
:1058C000C060000000000000000000600060006098
:1058D00000600060006000600060006000600060C8
:1058E0000060807F807F0000000000000000C07129
:1058F000C071C07BC07AC06AC06AC06EC064C0603C
:10590000C060C060C060C060C060000000000000F7
:10591000000080718071807980798079806D806DE0
:10592000806D80658067806780678063806300002A
:10593000000000000000001E003F00338061806115
:105940008061806180618061806180610033003F9F
:10595000001E0000000000000000007E007F806349
:105960008061806180618063007F007E00600060F4
:105970000060006000600000000000000000001EE9
:10598000003F00338061806180618061806180615F
:10599000806580670033803F401E000000000000EB
:1059A0000000007E007F8063806180618063007FF3
:1059B000007E00660063006380618061C06000005B
:1059C000000000000000000E001F80318031003018
:1059D0000038001E00078003806180618031003F35
:1059E000001E0000000000000000C0FFC0FF000C0F
:1059F000000C000C000C000C000C000C000C000C47
:105A0000000C000C000C0000000000000000806191
:105A1000806180618061806180618061806180617E
:105A2000806180618073003F001E00000000000064
:105A30000000C060C060C060803180318031001BD8
:105A4000001B001B001B000E000E000E00040000D7
:105A5000000000000000C0C0C0C0C0C0C0C0C0C0C6
:105A6000C0CC804C804C805E8052805280738061BC
:105A700080610000000000000000C0C08060806104
:105A80000033003B001E000C000C001E001F003BFA
:105A900080718061C0C00000000000000000C0C034
:105AA0008061806100330033001E001E000C000C7A
:105AB000000C000C000C000C000C000000000000AA
:105AC0000000803F803F8001000300030006000CBF
:105AD000000C0018001800300060807F807F0000FC
