:020000040800F2
:100000000000022021420008AF090008B1090008E1
:10001000B3090008B5090008B7090008000000008E
:10002000000000000000000000000000B13A0008DD
:10003000B909000800000000513B0008B53B00086A
:1000400071420008714200087142000871420008C4
:1000500071420008714200087142000871420008B4
:1000600071420008714200087142000871420008A4
:100070007142000871420008714200087142000894
:100080007142000871420008714200087142000884
:100090007142000871420008714200087142000874
:1000A00071420008BD090008714200087142000851
:1000B0007142000871420008714200087142000854
:1000C0007142000871420008714200087142000844
:1000D0007142000871420008714200087142000834
:1000E0007142000871420008714200087142000824
:1000F0007142000871420008714200087142000814
:100100007142000871420008714200087142000803
:1001100071420008714200087142000871420008F3
:10012000CD0900087142000871420008DD0900088D
:100130007142000800000000000000007142000849
:1001400071420008714200087142000871420008C3
:1001500071420008714200087142000871420008B3
:1001600071420008714200087142000871420008A3
:10017000714200087142000871420008000000004E
:1001800000000000714200080000000000000000B4
:1001900071420008000000000000000071420008E9
:1001A0000000000000000000000000007142000894
:1001B0007142000871420008714200087142000853
:0401C0007142000880
:1001D0000348044B834202D0034B03B118477047D6
:1001E0001000002010000020000000000548064913
:1001F000091A891001EBD171491002D0034B03B1E8
:100200001847704710000020100000200000000078
:1002100010B5064C237843B9FFF7DAFF044B13B14E
:100220000448AFF300800123237010BD10000020AC
:10023000000000007442000808B5044B1BB10449DB
:100240000448AFF30080BDE80840CFE7000000009D
:10025000140000207442000870B50D4E0D4D761B41
:10026000B61006D00024013455F8043B9847A64246
:10027000F9D1094E094D761B03F0FCFFB61006D0EC
:100280000024013455F8043B9847A642F9D170BDCB
:10029000E4420008E4420008E8420008E4420008A2
:1002A000844641EA000313F003036DD1403A41D381
:1002B00051F8043B40F8043B51F8043B40F8043B40
:1002C00051F8043B40F8043B51F8043B40F8043B30
:1002D00051F8043B40F8043B51F8043B40F8043B20
:1002E00051F8043B40F8043B51F8043B40F8043B10
:1002F00051F8043B40F8043B51F8043B40F8043B00
:1003000051F8043B40F8043B51F8043B40F8043BEF
:1003100051F8043B40F8043B51F8043B40F8043BDF
:1003200051F8043B40F8043B51F8043B40F8043BCF
:10033000403ABDD2303211D351F8043B40F8043B6F
:1003400051F8043B40F8043B51F8043B40F8043BAF
:1003500051F8043B40F8043B103AEDD20C3205D37F
:1003600051F8043B40F8043B043AF9D2043208D077
:10037000D2071CBF11F8013B00F8013B01D30B88E9
:1003800003806046704700BF082A13D38B078DD0C7
:1003900010F003038AD0C3F10403D21ADB071CBF99
:1003A00011F8013B00F8013B80D331F8023B20F803
:1003B000023B7BE7043AD9D3013A11F8013B00F83C
:1003C000013BF9D20B7803704B7843708B788370C4
:1003D00060467047F0B4860743D0541E002A3ED0D2
:1003E000CAB2034602E014F1FF3438D303F8012BFC
:1003F0009D07F8D1032C2BD9CDB245EA05250F2C4A
:1004000045EA054516D9A4F110073F0903F1200676
:1004100006EB071603F1100242E9045542E90255C2
:100420001032B242F8D104F00F040137032C03EB71
:1004300007130DD91E462246043A032A46F8045BE8
:10044000FAD8221F22F003020432134404F00304FA
:100450002CB1C9B21C4403F8011B9C42FBD1F0BC77
:10046000704714460346C5E753B94AB9002908BF87
:1004700000281CBF4FF0FF314FF0FF3000F072B981
:10048000ADF1080C6DE904CE00F006F8DDF804E0EB
:10049000DDE9022304B070472DE9F047089E0446C9
:1004A0008846002B4BD18A42154667D9B2FA82F2B0
:1004B0004AB1C2F1200701FA02F320FA07F795408A
:1004C00047EA030894404FEA154E230CB8FBFEF7A9
:1004D0001FFA85FC0EFB178843EA084307FB0CF163
:1004E000994209D9EB1807F1FF3080F01B8199423E
:1004F00040F21881023F2B445B1AA4B2B3FBFEF01A
:100500000EFB103344EA034400FB0CFCA44509D95C
:100510002C1900F1FF3380F00781A44540F20481DB
:1005200002382C4440EA0740A4EB0C0400271EB11B
:10053000D4400023C6E900433946BDE8F0878B422A
:1005400009D9002E00F0EB800027C6E900013846EB
:100550003946BDE8F087B3FA83F7002F47D18B42C5
:1005600002D3824200F2FA80841A61EB0303012075
:100570009846002EE0D0C6E90048DDE702B9FFDE6C
:10058000B2FA82F2002A40F08F80491B4FEA154EE2
:100590001FFA85F80127B1FBFEFC230C0EFB1C1192
:1005A00043EA014308FB0CF1994207D9EB180CF11F
:1005B000FF3002D2994200F2CD808446591AA3B28C
:1005C000B1FBFEF00EFB101443EA044408FB00F8F4
:1005D000A04507D92C1900F1FF3302D2A04500F243
:1005E000B6801846A4EB080440EA0C409FE7C7F128
:1005F000200CBB4022FA0CFE4EEA030E01FA07F46F
:1006000020FA0CF521FA0CF34FEA1E482543B3FB00
:10061000F8F92C0C08FB19331FFA8EFA44EA03434D
:1006200009FB0AF49C4202FA07F200FA07F10BD91F
:100630001EEB030309F1FF3080F087809C4240F2FB
:100640008480A9F1020973441B1BADB2B3FBF8F01F
:1006500008FB103345EA034400FB0AFAA24508D917
:100660001EEB040400F1FF336BD2A24569D90238B6
:10067000744440EA0940A0FB0289A4EB0A044C45FB
:10068000C2464B4654D351D0002E69D0B1EB0A0577
:1006900064EB030404FA0CFCFD40FC404CEA050545
:1006A000C6E90054002747E7C2F1200320FA03F708
:1006B000954001FA02F021FA03F34FEA154E384350
:1006C000010CB3FBFEF71FFA85F80EFB173341EA66
:1006D000034107FB08F38B4204FA02F407D96918B7
:1006E00007F1FF3C2FD28B422DD9023F2944CB1A70
:1006F00081B2B3FBFEF00EFB103341EA034100FB75
:1007000008F38B4207D9691800F1FF3C17D28B42DE
:1007100015D902382944C91A40EA07473BE737464A
:10072000304609E70746E7E61846FBE64145ABD207
:10073000B8EB020A69EB0E0201381346A4E76046E3
:10074000E9E7184695E76746D1E781467CE7023836
:100750002C4447E7ACF1020C2B442FE7384608E75E
:100760003746E9E6704700BF08B50124204603F08C
:1007700013F8FBE708B50124204603F00DF8FBE76A
:1007800030B595B03422002107A8FFF723FE0024DE
:100790000294039404940594069400941B4B1A6CE1
:1007A00042F080521A641B6C03F080530093009B4C
:1007B0000194174B1A6842F440421A601B6803F414
:1007C00040430193019B0225079501230A931023BF
:1007D0000B930D950E940F934FF4B47310931195E2
:1007E0001295139507A800F077FB01F029F80F2365
:1007F0000293039504944FF4A053059306930521A7
:1008000002A800F0C7F915B030BD00BF00380240A3
:100810000070004080B59CB001F0A4F8FFF7B0FF75
:10082000002407940894099401944B4D2B6B43F0DA
:1008300004032B632B6B03F004030193019B0294CD
:100840002B6B43F080032B632B6B03F0800302932D
:10085000029B03942B6B43F001032B632B6B03F080
:1008600001030393039B04942B6B43F002032B635C
:100870002B6B03F002030493049B4FF40053059386
:10088000364B069305A9364800F00CFD05942B6BFA
:1008900043F480032B632B6B03F480030593059BC8
:1008A00022460521382001F01DF8382001F04CF8CF
:1008B000224605213B2001F015F83B2001F044F8C9
:1008C000284D294B2B604FF482736B60AC60EC6059
:1008D0002C616C614FF40076AE61EC612C626C624D
:1008E000AC620A23EB62284603F0CCFA284601F0FA
:1008F000FFFB02F09DFE20273A46214614A8FFF791
:1009000069FD1A4B13931A4B15935C251695194BD9
:10091000179318961823199313AA2146164802F024
:10092000D3FE164B18603A4621460BA8FFF752FD3E
:10093000134B0A93134B0C930D95134B0E930F9679
:10094000082310930AAA2146104802F0BDFE104B5E
:10095000186002F091FEFEE700380240000021100E
:1009600000080240944B0020003001408C420008F7
:10097000EC4B002094490020690700088C490020B6
:100980009842000830490020084D002075070008F3
:100990009049002008B50268034B9A4200D008BD78
:1009A00000F0FAFFFBE700BF00000140704770470E
:1009B000FEE7FEE7FEE7FEE77047000008B50248E5
:1009C00001F012F808BD00BF084F002008B502482A
:1009D00000F048FE08BD00BF484C002008B50248A2
:1009E00000F040FE08BD00BFA84C002000B583B059
:1009F000002200920D4B596C41F480415964596CAE
:100A000001F48041009100990192196C41F08051EC
:100A100019641B6C03F080530193019B0F216FF04D
:100A2000010000F05FFF03B05DF804FB00380240F6
:100A300030B589B00023039304930593069307937D
:100A400002682F4B9A4201D009B030BD0446002500
:100A5000019503F584335A6C42F480525A645A6CFF
:100A600002F480520192019A02951A6B42F001023F
:100A70001A631B6B03F001030293029BE0230393B1
:100A800002230493032306930523079303A91D4818
:100A900000F008FC1C481D4B03604FF0C06343602E
:100AA0008560C5604FF48063036145618561C56100
:100AB0000562456200F0FCFCD8B9134BE3649C630B
:100AC0001348144B03604FF0C063436040238360BE
:100AD0000023C3604FF48062026143618361C3619C
:100AE0000362436200F0E4FC30B9094BA3649C63E9
:100AF000AAE7FFF75BFFE0E7FFF758FFF5E700BF66
:100B00000030014000000240484C002010640240C8
:100B1000A84C00205864024010B588B0002201465D
:100B2000192000F0DFFE192000F00EFF00240194D0
:100B3000144B5A6C42F001025A645B6C03F00103DF
:100B40000193019B02A903A800F0E6F800F0D4F895
:100B50000D4B0E4A1A6040F2E732DA6040000C4A50
:100B6000A2FB0020800C013858601C619C60184674
:100B700001F078F810B1012008B010BD024800F073
:100B80001EFFF9E700380240084F00200000014036
:100B900083DE1B43002800F0A1802DE9F0410446CC
:100BA000504B1B6803F00F038B420AD2CBB24D4A65
:100BB0001370136803F00F038B4202D00120BDE8CD
:100BC000F081236813F0020F17D013F0040F04D044
:100BD000454A936843F4E0539360236813F0080F89
:100BE00004D0414A936843F4604393603E4A93685B
:100BF00023F0F003A068034393600D46236813F0CD
:100C0000010F33D06268012A22D0931E012B26D90E
:100C1000354B1B6813F0020F62D033498B6823F009
:100C2000030313438B6000F0C3FE80462E4E41F257
:100C30008837B36803F00C036268B3EB820F15D0FA
:100C400000F0B6FEA0EB0800B842F2D90320B6E7E8
:100C5000254B1B6813F4003FDFD10120AFE7224B87
:100C60001B6813F0007FD8D10120A8E71D4B1B683B
:100C700003F00F03AB4209D9EAB21A4B1A701B6892
:100C800003F00F03AB4201D0012098E7236813F073
:100C9000040F06D0144A936823F4E053E1680B4331
:100CA0009360236813F0080F07D00F4A93682169F7
:100CB00023F4604343EAC103936000F04BF80A4B0E
:100CC0009B68C3F30313094AD35CD840084B1860F0
:100CD000084B1868FFF720FF002070E701207047DD
:100CE00001206CE7003C024000380240AC420008A2
:100CF0000800002004000020044B9B68C3F342332B
:100D0000034AD35C034A1068D84070470038024059
:100D1000BC420008080000200F2303600B4B9A68B8
:100D200002F0030242609A6802F0F00282609A6860
:100D300002F4E052C2609B68DB0803F4E0530361F5
:100D4000034B1B6803F00F030B6070470038024031
:100D5000003C02402DE9F04B5C4B9B6803F00C0318
:100D6000082B08D00C2B5CD059485A4A042B18BFCA
:100D70001046BDE8F08B554B5A6802F03F025B68A5
:100D800013F4800F2AD0514B5B68C3F388131E46BF
:100D900000275C010025E41A65EB0705A90141EA7B
:100DA0009461A001001B61EB0501CB0043EA507385
:100DB000C400A01943EB07014B0243EAD05344029D
:100DC000204619460023FFF74FFB404B5B68C3F3F7
:100DD000014301335B00B0FBF3F0CAE73B4B5B68B8
:100DE000C3F388131E4600275C010025E41A65EB57
:100DF0000705A90141EA9461A001001B61EB05010F
:100E0000CB0043EA5073C400A01943EB07018B02E7
:100E100043EA90538402204619460023FFF724FB3F
:100E2000D3E72A4B5A6802F03F025B6813F4800F45
:100E300028D0264B5B68C3F388131E4600275C014D
:100E40000025E41A65EB0705A90141EA9461A001B8
:100E5000001B61EB0501CB0043EA5073C400A019ED
:100E600043EB07014B0243EAD053440220461946A4
:100E70000023FFF7F9FA154B5B68C3F30273B0FB6D
:100E8000F3F076E7114B5B68C3F388131E46002727
:100E90005C010025E41A65EB0705A90141EA9461AC
:100EA000A001001B61EB0501CB0043EA5073C400B5
:100EB000A01943EB07018B0243EA905384022046BA
:100EC00019460023FFF7D0FAD5E700BF00380240EB
:100ED00000127A000024F4002DE9F04182B00446AB
:100EE000036813F0010F41D0A64B9B6803F00C037D
:100EF000042B32D0A34B9B6803F00C03082B27D0A4
:100F0000A04B9B6803F00C030C2B59D06368B3F51E
:100F1000803F5BD0B3F5A02F5ED09A4B1A6822F4C5
:100F200080321A601A6822F480221A606368002BEB
:100F30005CD000F03DFD0646924D2B6813F4003F57
:100F400014D100F035FD801B6428F6D903209FE101
:100F50008C4B5B6813F4800FD2D08A4B1B6813F460
:100F6000003F03D06368002B00F08F81236813F0EB
:100F7000020F67D0834B9B6813F00C0F4AD0814B54
:100F80009B6803F00C03082B3FD07E4B9B6803F05B
:100F90000C030C2B48D0E368002B74D07A4B012251
:100FA0001A6000F005FD0646764D2B6813F0020F1F
:100FB00060D100F0FDFC801B0228F6D9032067E118
:100FC000704B5B6813F4800FA0D0C6E76D4A1368BE
:100FD00043F480331360A9E76A4B1A6842F4802215
:100FE0001A601A6842F480321A609FE700F0E0FC51
:100FF0000646644D2B6813F4003FB7D000F0D8FCD0
:10100000801B6428F6D9032042E15E4B5B6813F431
:10101000800FBAD15B4B1B6813F0020F0AD0E36854
:10102000012B07D0012033E1564B5B6813F4800F8E
:10103000B1D1EFE7534A1368216923F0F80343EA7B
:10104000C1031360236813F0080F40D0636963B3D2
:101050004E4B01221A6000F0ABFC0646494D6B6F07
:1010600013F0020F33D100F0A3FC801B0228F6D945
:1010700003200DE1434A1368216923F0F80343EA92
:10108000C1031360DEE7404B00221A6000F090FCC1
:1010900006463C4D2B6813F0020FD3D000F088FCBD
:1010A000801B0228F6D90320F2E0384B00221A6098
:1010B00000F07EFC0646334D6B6F13F0020F06D036
:1010C00000F076FC801B0228F6D90320E0E02368BC
:1010D00013F0040F7BD02B4B1B6C13F0805F34D1CB
:1010E00000230193274B1A6C42F080521A641B6C48
:1010F00003F080530193019B0125254B1B6813F4DA
:10110000807F24D0A368012B35D0052B42D01D4B06
:101110001A6F22F001021A671A6F22F004021A678E
:10112000A368002B40D000F043FC8046154E41F2EE
:101130008837336F13F0020F48D100F039FCA0EB71
:101140000800B842F5D90320A2E00025D5E7104AEF
:10115000136843F48073136000F02AFC07460C4EBA
:10116000336813F4807FCDD100F022FCC01B02282D
:10117000F6D903208CE0034A136F43F00103136791
:10118000CEE700BF0038024000004742800E4742D1
:1011900000700040414B1A6F42F004021A671A6F48
:1011A00042F001021A67BBE700F002FC80463B4EAA
:1011B00041F28837336F13F0020F07D000F0F8FBCD
:1011C000A0EB0800B842F5D9032061E0E5B9A369B6
:1011D000002B5CD0314A926802F00C02082A5AD0E7
:1011E000022B17D02E4B00221A6000F0E1FB0546BF
:1011F0002A4C236813F0007F45D000F0D9FB401B38
:101200000228F6D9032043E0244A136C23F08053CC
:101210001364DCE7224B00221A6000F0C9FB06468B
:101220001E4D2B6813F0007F06D000F0C1FB801B21
:101230000228F6D903202BE0E369226A1343626A8D
:1012400043EA8213E26A43EA0263226B43EA0273CF
:10125000A26A5208013A43EA0243104A5360104B13
:1012600001221A6000F0A4FB05460C4C236813F021
:10127000007F06D100F09CFB401B0228F6D903201A
:1012800006E0002004E0002002E0012000E0002051
:1012900002B0BDE8F0810120FAE700BF003802404B
:1012A000600047422DE9F04F83B000246C4FDFF817
:1012B000BCC16C4EDFF8B8E146E04FEAD40900EB60
:1012C0008909D9F820A004F007054FEA850B0F25FE
:1012D00005FA0BF52AEA050A0D6905FA0BF545EA48
:1012E0000A05C9F8205069E0002505FA08F545EA25
:1012F00009059D6033686FEA02084D6815F4803F68
:101300000CBF08EA03031343336073684D6815F498
:10131000003F0CBF08EA030313437360B3684D68D2
:1013200015F4801F0CBF08EA03031343B360F3688E
:101330004D6815F4001F0CBF08EA03031343F36064
:101340000134102C00F088800123A3400A681A4061
:101350009342F5D14D6825F01005013D012D18D8B7
:1013600085684FEA44094FF0030808FA09F825EAAE
:101370000808CD6805FA09F545EA0805856045685D
:1013800025EA03084D68C5F30013A34043EA0803A8
:101390004360C5684FEA4408032303FA08F3DB43BC
:1013A00003EA05098D6805FA08F545EA0905C560EF
:1013B0004D6825F01005022D3FF47FAF05681D40F4
:1013C0004B6803F0030303FA08F32B4303604B68F5
:1013D00013F0805FB4D0002301937B6C43F480430F
:1013E0007B647B6C03F480430193019B24F0030333
:1013F00003F1804303F59C339D6804F003084FEA32
:1014000088084FF00F0909FA08F925EA090960452B
:101410003FF46AAF704515D0134DA84214D005F5BE
:101420008065A84212D005F58065A84210D005F568
:101430008065A8420ED005F58065A8420CBF062540
:10144000072552E7012550E702254EE703254CE723
:1014500004254AE7052548E703B0BDE8F08F00BF43
:1014600000380240003C01400008024000000240F9
:101470000004024012B9090481617047816170471C
:101480000268D3B2103B0849A1FB03131B090749AB
:10149000C95CC165032B22F47F7222F0030288BF6E
:1014A00004328265806D7047ABAAAAAAA4420008E4
:1014B00038B5044600F07CFA002C00F08880054620
:1014C000002384F83430022384F83530226813680E
:1014D00023F00103136023681A6812F0010F0AD089
:1014E00000F066FA401B0528F5D920236365032028
:1014F00084F8350038BD1A68364810406168A26823
:101500000A43E1680A4321690A4361690A43A16900
:101510000A43E1690A43216A0A430243616A0429D2
:1015200015D01A6021684B6923F00703626A1343E0
:10153000042A15D1A06A0343E26A8AB1A5691DBBDA
:1015400001281BD040B1022806D0002206E0E16A43
:10155000206B01430A43E4E7C2F30062002A30D162
:101560004B612046FFF78CFFE26D3F239340836081
:1015700000206065012384F83530BBE7B2F1C07FFD
:1015800014BF00220122E9E7B5F5005F06D002286A
:1015900017D9032813D1C2F30062DFE703280CD860
:1015A000DFE800F00F020F05C2F30062D6E7B2F1E8
:1015B000C07F14BF00220122D0E70022CEE7002224
:1015C000CCE740236365012084F8350092E70120D1
:1015D00090E700BF3F8010F070B490F83440012CC9
:1015E0003DD0856D012480F8344090F83540E4B258
:1015F000012C05D0002380F83430022070BC7047E5
:10160000022480F83540002444650668346824F4D8
:1016100080243460046863608368402B1AD00368B8
:1016200099600368DA60C26D3F239340AB60026843
:10163000136843F016031360036C23B10268136848
:1016400043F0080313600268136843F0010313605A
:101650000020D3E703689A600368D960E3E70220BB
:10166000CCE70000F0B583B0044600230193724B31
:101670001E68876D3D68C26D082393402B4210D0D1
:1016800003681A6812F0040F0BD01A6822F00402E3
:101690001A60C26D08239340BB60436D43F00103A1
:1016A0004365E26D012393402B4209D022685269C1
:1016B00012F0800F04D0BB60636D43F002036365DA
:1016C000E26D042393402B4209D02268126812F085
:1016D000020F04D0BB60636D43F004036365E26DE9
:1016E000102393402B4224D02268126812F0080F76
:1016F0001FD0BB6023681A6812F4802F0DD01B68BE
:1017000013F4002F04D1236C9BB12046984710E0BE
:10171000A36C73B1204698470BE01A6812F4807FDF
:1017200003D11A6822F008021A60236C0BB120461C
:101730009847E26D202393402B4255D022681268CF
:1017400012F0100F50D0BB6094F83530DBB2052B8F
:101750000ED023681A6812F4802F33D01B6813F45C
:10176000002F2AD1636C002B3ED0204698473BE0E7
:101770002268136823F0160313602268536923F06C
:1017800080035361236CA3B12268136823F008031C
:101790001360E26D3F239340BB60002384F8343034
:1017A000012384F83530236D002B43D02046984721
:1017B00040E0A36C002BE7D1EBE7E36BA3B120463D
:1017C000984711E01A6812F4807F09D11A6822F054
:1017D00010021A60002384F83430012384F8353075
:1017E000E36B0BB120469847636D1BB3636D13F039
:1017F000010F1BD0052384F835302268136823F0CD
:10180000010313600D4BA3FB0636B60A019B01339F
:101810000193B34204D823681B6813F0010FF5D17C
:10182000002384F83430012384F83530E36C0BB1A5
:101830002046984703B0F0BD08000020B5814E1B3C
:1018400030B583B000230193194B1A6C42F08052DB
:101850001A641B6C03F080530193019B154B01220A
:101860001A6000F0A5F80546134C636813F4803F36
:1018700008D100F09DF8401BB0F57A7FF5D9032020
:1018800003B030BD0D4B01221A6000F091F80546FF
:10189000094C636813F4003F07D100F089F8401B3E
:1018A000B0F57A7FF5D90320EAE70020E8E700BF2A
:1018B0000038024040000E420070004044000E42DA
:1018C000074AD36823F4E0631B041B0C43F0BF6397
:1018D00043F40033000200F4E0600343D360704738
:1018E00000ED00E030B4164BDB68C3F30223C3F114
:1018F0000704042C28BF04241D1D062D8CBF033BA8
:1019000000234FF0FF3505FA04F421EA0401994061
:1019100005FA03F322EA03031943002809DB09014E
:10192000C9B200F1604000F5614080F8001330BC9E
:10193000704700F00F000901C9B2024B1954F6E7D5
:1019400000ED00E014ED00E0002808DB420900F0A3
:101950001F00012303FA00F0014B43F822007047F7
:1019600000E100E008B50B4B1A6842F400721A60FF
:101970001A6842F480621A601A6842F480721A602F
:101980000320FFF79DFF0020FFF7C6F8FFF72EF8B2
:10199000002008BD003C0240034A1168034B1B783D
:1019A0000B441360704700BF484F00200000002028
:1019B000014B1868704700BF484F0020704702680D
:1019C000D36843F00103D3600268936803F0070310
:1019D000062B03D0136843F0010313600020704707
:1019E000704770477047704710B5044603681A691E
:1019F00012F0020F11D0DA6812F0020F0DD06FF062
:101A000002021A610123037703689B6913F0030F35
:101A100070D0FFF7E6FF0023237723681A6912F0DE
:101A2000040F12D0DA6812F0040F0ED06FF0040227
:101A30001A610223237723689B6913F4407F5FD0E8
:101A40002046FFF7CEFF0023237723681A6912F0A0
:101A5000080F12D0DA6812F0080F0ED06FF00802EB
:101A60001A61042323772368DB6913F0030F4ED038
:101A70002046FFF7B6FF0023237723681A6912F088
:101A8000100F12D0DA6812F0100F0ED06FF01002A3
:101A90001A61082323772368DB6913F4407F3DD064
:101AA0002046FFF79EFF0023237723681A6912F070
:101AB000010F03D0DA6812F0010F36D123681A69DA
:101AC00012F0800F03D0DA6812F0800F34D123684F
:101AD0001A6912F0400F03D0DA6812F0400F32D1C9
:101AE00023681A6912F0200F03D0DA6812F0200F71
:101AF00030D110BDFFF774FF2046FFF773FF8AE770
:101B00002046FFF76DFF2046FFF76CFF9BE720465E
:101B1000FFF766FF2046FFF765FFACE72046FFF7BB
:101B20005FFF2046FFF75EFFBDE76FF001021A611D
:101B30002046FEF72FFFC1E76FF080021A612046B2
:101B400000F0AAF8C3E76FF040021A612046FFF7E1
:101B50004AFFC5E76FF020021A61204600F09BF8AB
:101B6000C7E7000003683E4A90424DD0B0F1804F75
:101B700031D0A2F57C42904232D002F58062904290
:101B800033D002F58062904234D002F57842904220
:101B900035D002F57052904253D002F580629042E7
:101BA0004FD002F5806290424BD0A2F5983290421D
:101BB00047D002F58062904243D002F580629042A5
:101BC0003FD023F080034A69134303608B68C362EC
:101BD0000B68836232E023F070034A68134317E016
:101BE00023F070034A68134312E023F070034A683D
:101BF00013430DE023F070034A68134308E023F019
:101C000070034A68134303E023F070034A681343E8
:101C100023F44073CA68134323F080034A691343D3
:101C200003608B68C3620B6883620D4B984203D0DC
:101C300003F58063984201D10B690363012343617B
:101C4000704723F44073CA68134323F080034A6942
:101C5000134303608B68C3620B688362EEE700BFC7
:101C600000000140A8B110B5044690F83D305BB1CA
:101C7000022384F83D30211D2068FFF773FF012304
:101C800084F83D30002010BD80F83C30FFF796FE10
:101C9000EEE701207047704770470000054BD3F80E
:101CA000882042F47002C3F888204FF000629A60E6
:101CB000704700BF00ED00E030B583B002AC04F81F
:101CC000010D002240210C48FFF7D4FB0B4D0022F0
:101CD00080212846FFF7CEFB4FF6FF7301222146F5
:101CE0000748006802F00EF9012280212846FFF71C
:101CF000C1FB03B030BD00BF000402400008024039
:101D0000584F002030B583B002AC04F8010D012219
:101D100040210C48FFF7AEFB0B4D002280212846E6
:101D2000FFF7A8FB4FF6FF73012221460748006822
:101D300002F0E8F8012280212846FFF79BFB03B060
:101D400030BD00BF0004024000080240584F002090
:101D5000F8B507460D4616461C462A20FFF7ACFF8D
:101D6000380AFFF7CFFFF8B2FFF7CCFF300AFFF7D2
:101D7000C9FFF0B2FFF7C6FF2B20FFF79DFF280A2F
:101D8000FFF7C0FFE8B2FFF7BDFF200AFFF7BAFF79
:101D9000E0B2FFF7B7FFF8BDF0B5ADF5003D81B09B
:101DA00007460C4616461D46FFF7D2FF2C20FFF7CC
:101DB00083FFF61B2C1B013406FB04440022802108
:101DC0002048FFF757FB012240211F48FFF752FB35
:101DD0001E4A00216846FEF7FDFA0DF50033183360
:101DE0001B88ADF800304FF6FF72A24228BF224692
:101DF000520092B26946164B186802F04FF9144D22
:101E0000286802F00AFA0228FAD0B4F5803F08D216
:101E1000012280210B48FFF72DFB0DF5003D01B09D
:101E2000F0BD0C4B23445B009AB26946084B18681E
:101E300002F034F9064C206802F0EFF90228FAD0DB
:101E4000E6E700BF0008024000040240FEFF010078
:101E5000584F00200100FF7F00B583B0064A538829
:101E60001288013A80B2009092B200210846FFF732
:101E700093FF03B05DF804FB504F002082B0019047
:101E8000019B2BB1019B013B0193019B002BF9D1DD
:101E900002B0704708B544F62060FFF7EFFF44F644
:101EA0002060FFF7EBFF0120FFF706FF4CF25030F8
:101EB000FFF7E4FFCB20FFF7FFFE3920FFF722FFFB
:101EC0002C20FFF71FFF0020FFF71CFF3420FFF737
:101ED00019FF0220FFF716FFCF20FFF7EDFE0020CD
:101EE000FFF710FFC120FFF70DFF3020FFF70AFFBB
:101EF000E820FFF7E1FE8520FFF704FF0020FFF751
:101F000001FF7820FFF7FEFEEA20FFF7D5FE002054
:101F1000FFF7F8FE0020FFF7F5FEED20FFF7CCFEFF
:101F20006420FFF7EFFE0320FFF7ECFE1220FFF71F
:101F3000E9FE8120FFF7E6FEF720FFF7BDFE202037
:101F4000FFF7E0FEC020FFF7B7FE2320FFF7DAFE21
:101F5000C120FFF7B1FE1020FFF7D4FEC520FFF728
:101F6000ABFE3E20FFF7CEFE2820FFF7CBFEC720BA
:101F7000FFF7A2FE8620FFF7C5FE3620FFF79CFE86
:101F80004820FFF7BFFE3A20FFF796FE5520FFF7E7
:101F9000B9FEB120FFF790FE0020FFF7B3FE182036
:101FA000FFF7B0FEB620FFF787FE0820FFF7AAFE76
:101FB0008220FFF7A7FE2720FFF7A4FEF220FFF7FD
:101FC0007BFE0020FFF79EFE2A20FFF775FE002013
:101FD000FFF798FE0020FFF795FE0020FFF792FE26
:101FE000EF20FFF78FFE2B20FFF766FE0020FFF7A4
:101FF00089FE0020FFF786FE0120FFF783FE3F20C9
:10200000FFF780FE2620FFF757FE0120FFF77AFE3C
:10201000E020FFF751FE0F20FFF774FE3120FFF79D
:1020200071FE2B20FFF76EFE0C20FFF76BFE0E20DB
:10203000FFF768FE0820FFF765FE4E20FFF762FEFF
:10204000F120FFF75FFE3720FFF75CFE0720FFF768
:1020500059FE1020FFF756FE0320FFF753FE0E2017
:10206000FFF750FE0920FFF74DFE0020FFF74AFE64
:10207000E120FFF721FE0020FFF744FE0E20FFF7CE
:1020800041FE1420FFF73EFE0320FFF73BFE112028
:10209000FFF738FE0720FFF735FE3120FFF732FE4D
:1020A000C120FFF72FFE4820FFF72CFE0820FFF786
:1020B00029FE0F20FFF726FE0C20FFF723FE31201C
:1020C000FFF720FE3620FFF71DFE0F20FFF71AFE58
:1020D0001120FFF7F1FD0548FFF7D0FE2920FFF79B
:1020E000EBFD2C20FFF7E8FD08BD00BF40420F00CC
:1020F000F0B587B0164B186000240394049405943F
:102100008027019701250295124E01A93046FFF75D
:10211000C9F84023019301A90F48FFF7C3F82A46E5
:1021200039463046FFF7A6F9FFF7B4FE0B4B1C808B
:102130000B4B1C800B4BF0221A804FF4A0725A807C
:102140001D714FF6FF70FFF787FE07B0F0BD00BFAF
:10215000584F00200008024000040240564F002063
:102160004C4F0020504F002000F1080343604FF017
:10217000FF328260C3600361002303607047002365
:102180000361704743684B609A688A609A6851603F
:1021900099600861036801330360704730B40D68CB
:1021A000B5F1FF3F02D000F1080202E0026904E04D
:1021B0001A4653681C68AC42FAD953684B60996060
:1021C0008A605160086103680133036030BC704766
:1021D00003694268816891608268416851605A6809
:1021E000824204BF82685A60002202611A68013A82
:1021F0001A601868704710B5044601F06BFCA46BB8
:1022000001F08AFCB4FA84F0400910BD70B50446B0
:102210001646856B026C5AB903681BB10020013564
:10222000A56370BD406800F0C1FF00236360F6E75E
:102230006EB98068FEF734F8A368226C1344A3607B
:102240006268934219D32368A3600020E7E7C0685F
:10225000FEF726F8226C5242E3681344E3602168DB
:102260008B4202D263681A44E260022E01D0002041
:10227000D5E725B1013D0020D1E70020CFE70020C0
:10228000CDE7026C72B110B5C3681344C3604468F3
:10229000A34224BF0368C3600C46C1682046FDF713
:1022A000FFFF10BD704770B5054601F013FC95F8AF
:1022B000454064B2002C11DD6B6A7BB105F1240648
:1022C00006E000F05DFF013C64B23CB16B6A2BB1EB
:1022D000304600F0C5FE0028F5D0F2E7FF2385F870
:1022E000453001F019FC01F0F5FB95F8444064B26B
:1022F000002C11DD2B697BB105F1100606E000F022
:102300003FFF013C64B23CB12B692BB1304600F079
:10231000A7FE0028F5D0F2E7FF2385F8443001F04E
:10232000FBFB70BD38B540B94FF0500383F3118803
:10233000BFF36F8FBFF34F8FFEE704460D4601F0EA
:10234000C9FB2268216CE36B03FB01F3D0186060CA
:102350000020A063A2605B1A1344E360FF2384F8AB
:10236000443084F84530A5B923691BB901F0D4FB8A
:10237000012038BD04F1100000F072FE0028F5D0F5
:10238000084B4FF080521A60BFF34F8FBFF36F8F2F
:10239000ECE704F11000FFF7E7FE04F12400FFF77B
:1023A000E3FEE3E704ED00E040B94FF0500383F3B0
:1023B0001188BFF36F8FBFF34F8FFEE710B582B068
:1023C000044653B192B1D9B94FF0500383F3118849
:1023D000BFF36F8FBFF34F8FFEE74FF0500383F3D0
:1023E0001188BFF36F8FBFF34F8FFEE749B34FF0F4
:1023F000500383F31188BFF36F8FBFF34F8FFEE756
:10240000502001900198502808D04FF0500383F3DA
:102410001188BFF36F8FBFF34F8FFEE7012083F862
:1024200046001A6022461C46DA63196401211846E8
:10243000FFF778FF9DF8103084F84C30204602B04A
:1024400010BD50220192019A502ADED1012283F858
:1024500046201B60E6E700002DE9F04784B00192BA
:1024600060B1044699B9026C8AB14FF0500383F30E
:102470001188BFF36F8FBFF34F8FFEE74FF050030C
:1024800083F31188BFF36F8FBFF34F8FFEE7022BEB
:102490000BD1E26B012A08D04FF0500383F311886F
:1024A000BFF36F8FBFF34F8FFEE71E460F4600F05E
:1024B0006DFE50B9019B73B14FF0500383F3118847
:1024C000BFF36F8FBFF34F8FFEE700254FF000087B
:1024D000DFF8089133E00025F8E732463946204618
:1024E000FFF794FE636A4BB9A8B13C4B4FF08052A2
:1024F0001A60BFF34F8FBFF36F8F0CE004F124001D
:1025000000F0AEFD38B1354B4FF080521A60BFF38A
:102510004F8FBFF36F8F01F0FFFA012004B0BDE8C9
:10252000F08701F0F9FA0020F8E702A800F0DCFDDE
:1025300012E02046FFF7B7FE00F068FC012501F02D
:10254000C9FAA26BE36B9A42C7D3022EC5D0019B96
:10255000002BE6D0002DE8D001F0DEFA00F0B4FB4D
:1025600001F0B8FA94F844305BB2B3F1FF3F08BF12
:1025700084F8448094F845305BB2B3F1FF3F08BF64
:1025800084F8458001F0C8FA01A902A800F0B8FD5E
:10259000E8B901F09FFAD4F838A0E56B01F0BCFA75
:1025A000AA45C6D1019904F1100000F023FD204690
:1025B000FFF779FE00F02AFC0028BFD14FF08053CE
:1025C000C9F80030BFF34F8FBFF36F8FB6E72046D7
:1025D000FFF769FE00F01AFC00209FE704ED00E021
:1025E0002DE9F84360B1044699B9006C88B14FF009
:1025F000500383F31188BFF36F8FBFF34F8FFEE754
:102600004FF0500383F31188BFF36F8FBFF34F8FE9
:10261000FEE7022B0BD1E06B012808D04FF05003EE
:1026200083F31188BFF36F8FBFF34F8FFEE71F4611
:102630009046894601F07CFBEFF311864FF0500382
:1026400083F31188BFF36F8FBFF34F8FA26BE36BE0
:102650009A4203D3022F01D000200FE094F8455096
:102660006DB23A4649462046FFF7D0FDB5F1FF3F2F
:1026700008D06B1C5BB284F84530012086F31188CA
:10268000BDE8F883636A5BB104F1240000F0E8FC64
:1026900040B1B8F1000F07D00120C8F80000EDE705
:1026A0000120EBE70120E9E70120E7E72DE9F0430E
:1026B00085B0019260B1044699B9036C8BB14FF0BB
:1026C000500383F31188BFF36F8FBFF34F8FFEE783
:1026D0004FF0500383F31188BFF36F8FBFF34F8F19
:1026E000FEE70E4600F052FD50B9019B73B14FF06A
:1026F000500383F31188BFF36F8FBFF34F8FFEE753
:1027000000274FF00008DFF8FC9037E00027F8E7DB
:1027100031462046FFF7B5FD013DA56323692BB97E
:1027200001F0FAF9012005B0BDE8F08304F11000D2
:1027300000F096FC0028F3D0324B4FF080521A6024
:10274000BFF34F8FBFF36F8FEAE701F0E5F9002089
:10275000E9E702A800F0C8FC1AE02046FFF7A3FD55
:1027600000F054FB09E02046FFF79DFD00F04EFB12
:102770002046FFF740FD002842D1012701F0AAF9C9
:10278000A56B002DC4D1019B002BDED0002FE0D023
:1027900001F0C2F900F098FA01F09CF994F8443085
:1027A0005BB2B3F1FF3F08BF84F8448094F8453032
:1027B0005BB2B3F1FF3F08BF84F8458001F0ACF98C
:1027C00001A902A800F09CFC0028CCD12046FFF70C
:1027D00012FD0028C1D0019904F1240000F00AFC88
:1027E0002046FFF760FD00F011FB0028C5D14FF037
:1027F0008053C9F80030BFF34F8FBFF36F8FBCE732
:10280000002090E704ED00E010B40B4B1B6853B1BF
:102810000123094C54F8332032B10133082BF9D18C
:102820005DF8044B70470023034A42F8331002EB73
:10283000C3035860F4E700BF5C4F002070B5044646
:102840000D46164601F046F994F844305BB2B3F1F8
:10285000FF3F04BF002384F8443094F845305BB256
:10286000B3F1FF3F04BF002384F8453001F054F971
:10287000A36B1BB12046FFF716FD70BD32462946FB
:1028800004F1240000F0CEFBF4E70000084B1B68C5
:102890001B683BB1064B1B68DB68DB685A68054B5D
:1028A0001A607047034B4FF0FF321A60704700BF49
:1028B00030000020D80400202DE9F04782468946E8
:1028C0009846099E0A9C95002A46A521206BFDF793
:1028D00081FD043D236B1D4425F0070599F8003068
:1028E00084F8343099F8003063B14B4604F1340277
:1028F00009F10F0113F8010F02F8010F187808B160
:102900008B42F7D1002784F84370089B372B28BFF0
:1029100037239946E362E3642765201DFFF72FFC08
:1029200004F11800FFF72BFC2461C9F13803A361FF
:102930006462676584F8587042465146284601F043
:102940009FF8206006B13460BDE8F08770B5054699
:1029500001F0C0F82F4A1368013313602E4B1B6837
:10296000002B32D02D4B1B683BB92B4B1B68DA6A0E
:10297000EB6A9A429CBF284B1D60294A13680133B9
:1029800013606B64E86A274B1B68984284BF254B31
:10299000186000EB8000291D234B03EB8000FFF73C
:1029A000F1FB01F0B9F81D4B1B686BB11A4B1B68AA
:1029B000DA6AEB6A9A4207D21C4B4FF080521A60D7
:1029C000BFF34F8FBFF36F8F70BD134B1D60136844
:1029D000012BD2D1144C04F58C662046FFF7C4FBC2
:1029E0001434B442F9D1124E3046FFF7BDFB114CFE
:1029F0002046FFF7B9FB1048FFF7B6FB0F48FFF77B
:102A0000B3FB0F48FFF7B0FB0E4B1E600E4B1C6074
:102A1000B3E700BF980400202C000020F40400203D
:102A2000A8040020AC0400203800002004ED00E0E1
:102A3000B0040020C4040020E00400200C050020A5
:102A4000F8040020300000203400002010B50446B7
:102A500090F8593033B9006B00F09EFF204600F02B
:102A60009BFF10BD012B0AD0022BFAD04FF0500370
:102A700083F31188BFF36F8FBFF34F8FFEE700F032
:102A80008BFFEEE780B5144C144F154EDFF85880DD
:102A90002368A3B101F01EF8FB68DD68281DFFF76D
:102AA00097FB3368013B33602368013B236001F0EF
:102AB00033F82846FFF7CAFF2368002BEAD1094BF9
:102AC0001B68012BE4D94FF08053C8F80030BFF3E6
:102AD0004F8FBFF36F8FDBE79C0400200C050020B5
:102AE000980400203800002004ED00E070B5044692
:102AF0000E46174B1D68174B18680430FFF768FB2C
:102B0000B4F1FF3F13D02C44124B1B685C60A5420C
:102B100016D8114B18680F4B19680431FFF73EFBAC
:102B20000E4B1B68A34284BF0C4B1C6070BD002E73
:102B3000E9D0084B196804310948FFF723FBF5E792
:102B4000084B1868034B19680431FFF727FBEDE7C2
:102B5000200500202C00002030000020D804002098
:102B6000F80400203400002070B586B00B9D0C9C4A
:102B700045B94FF0500383F31188BFF36F8FBFF354
:102B80004F8FFEE744B94FF0500383F31188BFF332
:102B90006F8FBFF34F8FFEE75C260496049E5C2E7A
:102BA00008D04FF0500383F31188BFF36F8FBFF34A
:102BB0004F8FFEE72563022584F8595000250395C1
:102BC000029405AD01950A9D0095FFF775FE20461C
:102BD000FFF7BCFE059806B070BD2DE9F04385B047
:102BE0000746884615469946900000F03BFE10B314
:102BF00006465C2000F036FE0446B0B106630023B2
:102C000080F85930039302900D9B01930C9B009325
:102C10004B462A4641463846FFF74EFE2046FFF710
:102C200095FE012005B0BDE8F083304600F0B4FE0B
:102C30004FF0FF30F6E74FF0FF30F3E710B588B004
:102C400000240594069407AA06A905A800F0C6FD6D
:102C5000059B0293069B019300942346079A15490E
:102C60001548FFF781FFB0B100F044FB012814D1F3
:102C70004FF0500383F31188BFF36F8FBFF34F8F73
:102C80000E4B4FF0FF321A600D4B01221A600D4BB4
:102C90001C6000F0C1FF08B010BDB0F1FF3FFAD1D9
:102CA0004FF0500383F31188BFF36F8FBFF34F8F43
:102CB000FEE700BFC4420008852A0008D8040020AF
:102CC000F404002020050020024A13680133136039
:102CD000704700BFA4040020014B1868704700BF74
:102CE000200500202DE9F0473D4B1B68002B69D1E2
:102CF0003C4B1D6801351D60C5B93B4B1B681B680B
:102D000043B14FF0500383F31188BFF36F8FBFF3CC
:102D10004F8FFEE7344A1168344B18681060196011
:102D2000334A136801331360FFF7B0FD314B1B6862
:102D3000AB420CD90024304B1B68DB6A03EB8303E6
:102D40009B002E4AD358022B28BF01243FE00024C9
:102D5000DFF894802A4FDFF8A4A01AE0254B4FF04B
:102D6000FF321A60E7E7234A1360E4E7F06A3B6842
:102D7000984288BF386000EB800049460AEB80002B
:102D8000FFF700FA1C4B1B68F26ADB6A9A4228BF05
:102D90000124D8F800301B68002BDFD0D8F80030B1
:102DA000DB68DE6873689D42DDD306F1040948469E
:102DB000FFF70EFAB36A002BD8D006F11800FFF720
:102DC00007FAD3E70F4A13680133136000240E4B50
:102DD0001B68002B0CBF20460120BDE8F08700BF18
:102DE000A404002020050020300000203400002032
:102DF000DC040020D80400202C0000203800002033
:102E0000AC040020A004002024050020344B1B68E3
:102E100043B94FF0500383F31188BFF36F8FBFF3B3
:102E20004F8FFEE72DE9F04100F054FE2C4B1A685D
:102E3000013A1A601B68002B4DD12A4B1B682BB935
:102E4000002400F069FE2046BDE8F0810024264EF3
:102E5000264DDFF8AC803368FBB1F368DC6804F121
:102E60001800FFF7B5F9271D3846FFF7B1F9E06AFA
:102E70002B68984288BF286000EB8000394608EB39
:102E80008000FFF77FF91A4B1B68E26ADB6A9A42FF
:102E9000E1D3184B01221A60DDE70CB1FFF7F6FC15
:102EA000154B1C6854B1134E0125FFF71BFF00B1F1
:102EB0003560013CF9D1104B00221A600D4B1B68A4
:102EC0005BB10E4B4FF080521A60BFF34F8FBFF3D0
:102ED0006F8F0124B5E70024B3E70024B1E700BFFA
:102EE000A404002098040020E0040020AC0400208A
:102EF0002C00002024050020A004002004ED00E0A8
:102F00003800002010B5A8B104460F4B1B6843B130
:102F10004FF0500383F31188BFF36F8FBFF34F8FD0
:102F2000FEE7FFF7D1FE00212046FFF7DFFDFFF7A8
:102F30006DFF38B9054B4FF080521A60BFF34F8FC9
:102F4000BFF36F8F10BD00BFA404002004ED00E0AC
:102F5000234B1B681BB1234B01221A607047214B86
:102F600000221A60204B1B6803EB830292001F496A
:102F70008A5892B943B10A46013B03EB830152F8E8
:102F8000211051B9002BF7D14FF0500383F3118872
:102F9000BFF36F8FBFF34F8FFEE710B4134A990052
:102FA000C81802EB80004468646844600246083236
:102FB00094420DD003EB83010C4A02EB810252686C
:102FC000D1680B4A1160084A13605DF8044B7047E2
:102FD00061680648142202FB03025160EAE700BF61
:102FE000A404002024050020AC04002038000020A8
:102FF0002C00002040B94FF0500383F31188BFF339
:103000006F8FBFF34F8FFEE710B50C46044B196866
:103010001831FFF7C3F801212046FFF767FD10BD07
:103020002C00002038B540B94FF0500383F31188CD
:10303000BFF36F8FBFF34F8FFEE714460D46074B6C
:1030400019681831FFF79EF8002C21460CBF28465E
:103050004FF0FF30FFF74AFD38BD00BF2C000020C5
:1030600038B5C368DC6844B94FF0500383F3118866
:10307000BFF36F8FBFF34F8FFEE704F118052846AB
:10308000FFF7A6F8124B1B68EBB9251D2846FFF782
:103090009FF8E06A0F4B1B68984284BF0D4B186085
:1030A00000EB800029460C4B03EB8000FFF76AF829
:1030B0000A4B1B68E26ADB6A9A4283BF0120084B15
:1030C0001860002038BD29460648FFF75BF8EFE797
:1030D000A4040020AC040020380000202C000020B4
:1030E00024050020E0040020034B1B680360034B11
:1030F0001B684360704700BFDC04002020050020EF
:10310000F8B550B1054689B94FF0500383F31188E3
:10311000BFF36F8FBFF34F8FFEE74FF0500383F382
:103120001188BFF36F8FBFF34F8FFEE70C4600F09F
:10313000D1FC114B196868680A1A2368B3F1FF3F84
:1031400016D00E4E36682F68B74201D0884211D98A
:10315000934203D800232360012405E09B1A2360D7
:103160002846FFF7C1FF002400F0D6FC2046F8BD3A
:103170000024F9E70124F7E720050020DC04002003
:10318000014B01221A60704724050020054B1B6883
:1031900033B1054B1B68002B0CBF02200020704789
:1031A00001207047F4040020A4040020002838D037
:1031B00038B504461E4A1268824208D04FF05003C8
:1031C00083F31188BFF36F8FBFF34F8FFEE7026D5C
:1031D00042B94FF0500383F31188BFF36F8FBFF3F1
:1031E0004F8FFEE7013A0265C06AE16C88421AD04F
:1031F000DAB9251D2846FEF7EBFFE36CE362C3F165
:103200003802A2610B4A1268934284BF094A1360D4
:103210002946094A142000FB0320FEF7B3FF0120D2
:1032200038BD002070470020FAE70020F8E700BF13
:103230002C000020AC0400203800002008B54160BC
:10324000006191420CD8D21A83699A4201D30120BD
:1032500010E0011D094B1868FEF7A0FF002009E0EF
:103260009A4201D2994206D2011D054B1868FEF719
:1032700095FF002008BD0120FCE700BF2C050020C1
:103280002805002030B583B000F024FC114B1B68EA
:103290001BB100F041FC03B030BD0F4D2846FEF7D6
:1032A00063FF0E4C2046FEF75FFF0D4B1D600D4B7C
:1032B0001C60002300930C4B0C4A10210A20FFF7DE
:1032C00073F8044B18600028E3D00949FFF79CFA13
:1032D000DFE700BF4C060020D0050020E4050020F9
:1032E000280500202C050020FC05002030050020CA
:1032F000CC42000810B588B0FFF7C4FF124B1B6822
:10330000CBB100240594069407AA06A905A800F0ED
:1033100071FA059B0293069B0193022300932346B7
:10332000079A0A490A48FFF71FFC0A4B186010B1B8
:10333000012008B010BD4FF0500383F31188BFF394
:103340006F8FBFF34F8FFEE74C060020D44200087A
:103350006134000850060020D8B130B585B015465C
:103360000446144A106810B31A460091019502945D
:10337000052917DCFFF70AFF02284FF000030CBFF6
:10338000089A1A4669460B480068FFF765F805B0C9
:1033900030BD4FF0500383F31188BFF36F8FBFF33D
:1033A0004F8FFEE700236946FFF71AF9EFE7002089
:1033B000EDE700BF4C0600202DE9F04782B007463C
:1033C000FFF78AFC0646234B1B68834207D800237D
:1033D0003B60204B1E60304602B0BDE8F0871E4DBA
:1033E0004FF000082B681A6862B3DB68D3F800A0BE
:1033F000DC6804F104094846FEF7EAFE636A2046E9
:103400009847E369012BEDD1A36953449A4506D24D
:103410006360246149462868FEF7C0FEE2E7CDF804
:1034200000804346524641462046FFF795FF00285C
:10343000D8D14FF0500383F31188BFF36F8FBFF3E0
:103440004F8FFEE7054A10680349086013600123A7
:103450003B60BEE7F8050020280500202C05002071
:103460002DE9F04389B06E4F6E4DDFF8C0813B68A7
:103470001A6872B1DB681C68FFF726FC04A8FFF726
:103480009BFF0646049B002B53D1844222D9002285
:103490000FE0FFF719FC04A8FFF78EFF0646049B18
:1034A000002B46D1604B1B681A68B2FA82F25209AF
:1034B0000024A11B2868FFF7C1F9FFF7A7FC00282B
:1034C00039D14FF08053C8F80030BFF34F8FBFF3AE
:1034D0006F8F30E0FFF79AFC3B68DB68D3F80C9005
:1034E00009F10400FEF774FED9F81C30012B04D05A
:1034F000D9F82430484698471DE0D9F818102346DB
:10350000324621444846FFF799FE0028F0D00021BA
:1035100000910B4622464846FFF71EFF0028E7D1E0
:103520004FF0500383F31188BFF36F8FBFF34F8FBA
:10353000FEE7FFF76BFC0024224604A92868FFF78A
:10354000B5F8002893D0049B002B06DA079906985B
:10355000059B9847049B002BEEDB069E736913B115
:10356000301DFEF735FE03A8FFF726FF049B092B4D
:10357000E2D801A252F823F0A1350008A1350008D5
:10358000A135000839350008E93500080F36000874
:10359000A1350008A135000839350008E9350008D3
:1035A00005990B460246B06901443046FFF746FED6
:1035B0000028C1D0736A30469847F369012BBBD10C
:1035C000B2690094234605990A4421463046FFF724
:1035D000C3FE0028B0D14FF0500383F31188BFF32E
:1035E0006F8FBFF34F8FFEE70599B16131B103468D
:1035F000024601443046FFF721FE9DE74FF050039D
:1036000083F31188BFF36F8FBFF34F8FFEE796F8F8
:103610002C30002B90D1304600F0BEF98CE700BF73
:10362000280500204C0600202C05002004ED00E0B9
:10363000EFF30583ABB9EFF31083ABB90D4B1B6808
:10364000022B05D09BB90B4B01221A60002070475A
:10365000EFF31183002B14BF6FF005004FF0FF3024
:1036600070476FF0050070476FF0050070474FF02E
:10367000FF307047B008002008B5EFF30583C3B9E9
:10368000EFF31083C3B90F4B1B68022B08D0012B3B
:1036900015D10C4B02221A60FFF7D0FA002008BDAA
:1036A000EFF31183002B14BF6FF005004FF0FF30D4
:1036B000F5E76FF00500F2E76FF00500EFE74FF078
:1036C000FF30ECE7B0080020F0B587B00024049488
:1036D000EFF30584DCB9EFF31083C3B92D4B1B68FE
:1036E000022B10D098B10B4600218DF81710002A3C
:1036F0003DD0116871B194697CB12546013C372CED
:103700000CD9002004E0EFF31183002BEAD00498D9
:1037100007B0F0BD0DF11701EDE71825546814F05E
:10372000010F35D15469A4B14FEA940C96689EB14B
:10373000D7685B2FEBD91769002FE8D0002CE6D0B3
:1037400002961269019200956246FFF70DFA049005
:10375000DDE74FF0800CE9E7D468002CD7D112697F
:10376000003218BF01225242002AD0D104E01825AD
:103770004FF0800C0DF1170104AA019200951FFA79
:103780008CF2FFF72AFA01281CBF00230493BEE73E
:103790000020BDE7B008002008B5EFF30583A3B90A
:1037A000EFF31083A3B90C4B1B68022B02D040B976
:1037B000002008BDEFF31183002BF8D06FF0050057
:1037C000F7E7FFF79FFB0020F3E76FF00500F0E756
:1037D0006FF00500EDE700BFB0080020034B036069
:1037E000034B0B6080231360704700BF5408002018
:1037F00054060020034B0360034B0B604FF48073AF
:1038000013607047B40C0020B408002010B4134BB0
:103810001A6882421BD35C681919884203D1416837
:1038200021445960184641684418A24213D10C4CF7
:103830002468A2420DD052680A4442601A68126895
:103840000260984218BF18605DF8044B7047134639
:10385000DEE70260F5E70260F3E700BF20490020E1
:10386000100D0020F8B50446FFF72EFA444B1B68F4
:10387000B3B1444B1F68274279D1002C7BD004F1AF
:10388000080313F0070F1CBF23F007030833002BB6
:103890006DD03D4A16689E4269D33C4A146827E0C1
:1038A0003B4A12F0070F1ED0D11D21F0070102F58F
:1038B00070535B1A0A463548026000214160134488
:1038C000083B23F007032E48036059601960991ADA
:1038D000516013602F4B19602B4B1960294B4FF02F
:1038E00000421A60C5E74FF47053E4E722460C46E5
:1038F0006168994202D221680029F7D120490968FC
:10390000A14234D01568216811606268D21A102A69
:1039100010D9E01810F0070F08D04FF0500383F3D0
:103920001188BFF36F8FBFF34F8FFEE74260636074
:10393000FFF76CFF6268B61A13490E6015490968F3
:103940008E423CBF13490E60083517436760002361
:103950002360FFF75BFA15F0070F0FD04FF050030D
:1039600083F31188BFF36F8FBFF34F8FFEE7FFF72D
:103970004DFA002502E0FFF749FA00252846F8BD78
:10398000100D002014490020184900202049002073
:10399000140D00201C49002078B310B5044650F8DF
:1039A000043C164A1268134208D14FF0500383F3C7
:1039B0001188BFF36F8FBFF34F8FFEE750F8081CDD
:1039C00041B14FF0500383F31188BFF36F8FBFF302
:1039D0004F8FFEE723EA020340F8043CFFF774F937
:1039E000074A54F8043C11680B441360A4F1080022
:1039F000FFF70CFFFFF70AFA10BD704714490020CB
:103A00001849002082B0002301930D4B1B68B3F1CD
:103A1000FF3F08D04FF0500383F31188BFF36F8F3F
:103A2000BFF34F8FFEE74FF0500383F31188BFF3CE
:103A30006F8FBFF34F8F019B002BFCD002B07047FC
:103A40000C00002008480068006880F308884FF0E8
:103A5000000080F3148862B661B6BFF34F8FBFF3E6
:103A60006F8F00DF00BF000008ED00E0DFF80C0002
:103A7000016841F4700101607047000088ED00E0CA
:103A80004FF0807340F8043C21F0010140F8081C1D
:103A9000054B40F80C3C40F8202C6FF0020340F836
:103AA000243C4438704700BF053A0008000000007D
:103AB000074B19680868B0E8F04F80F30988BFF336
:103AC0006F8F4FF0000080F311887047AFF30080D4
:103AD0002C0000204FF0500383F31188BFF36F8F49
:103AE000BFF34F8F0A4A136801331360012B00D0D4
:103AF0007047084B1B6813F0FF0FF9D04FF05003CD
:103B000083F31188BFF36F8FBFF34F8FFEE700BFC2
:103B10000C00002004ED00E0094B1B6843B94FF096
:103B2000500383F31188BFF36F8FBFF34F8FFEE70E
:103B3000013B034A13600BB983F31188704700BF40
:103B40000C00002000000000000000000000000049
:103B5000EFF30980BFF36F8F154B1A681EF0100F3B
:103B600008BF20ED108A20E9F04F10602DE9090010
:103B70004FF0500080F31188BFF34F8FBFF36F8F6A
:103B8000FFF7E6F94FF0000080F3118809BC1968CF
:103B90000868B0E8F04F1EF0100F08BFB0EC108AB4
:103BA00080F30988BFF36F8F704700BFAFF30080C9
:103BB0002C00002008B54FF0500383F31188BFF3A9
:103BC0006F8FBFF34F8FFFF78DF818B1034B4FF096
:103BD00080521A60002383F3118808BD04ED00E0D1
:103BE000084A0023136008490B60084B1B6808490A
:103BF000A1FB03139B09013B06490B6007231360DC
:103C0000704700BF10E000E018E000E0080000206E
:103C1000D34D621014E000E03C4B1A683C4B9A42D2
:103C20000DD03A4B1A683B4B9A4211D14FF05003DA
:103C300083F31188BFF36F8FBFF34F8FFEE74FF011
:103C4000500383F31188BFF36F8FBFF34F8FFEE7ED
:103C500010B582B0304B1A78D2B20192FF221A709E
:103C60001B78DBB28DF803309DF8033003F050036E
:103C70002A4A13702A4B07221A609DF8033013F06A
:103C8000800F12D0062300E00B469DF8032052005F
:103C9000D2B28DF803209DF80320591E12F0800F38
:103CA000F2D11F4A1360032B08D04FF0500383F367
:103CB0001188BFF36F8FBFF34F8FFEE71B0203F432
:103CC000E063174A1360019BDBB2134A1370154B74
:103CD0001A6842F470021A601A6842F070421A6060
:103CE000FFF77EFF0024104B1C60FFF7BFFE0F4A5A
:103CF000136843F040431360FFF7A4FEFFF728F971
:103D0000FFF780FE204602B010BD00BF00ED00E0CE
:103D100071C20F4170C20F4100E400E02849002049
:103D20002C49002020ED00E00C00002034EF00E0E2
:103D3000EFF305830F2B0FD9104A9B5CDBB2104ABF
:103D400012789A4208D94FF0500383F31188BFF3D9
:103D50006F8FBFF34F8FFEE70A4B1B6803F4E063DE
:103D6000094A1268934208D94FF0500383F311882F
:103D7000BFF36F8FBFF34F8FFEE77047F0E300E0B4
:103D8000284900200CED00E02C490020F8B507463A
:103D90000E4615461C463A68936836EA03030CBF84
:103DA00001230023AB4237D0B4F1FF3FF4D0FDF73D
:103DB000FFFD069BC01AA04201D2002CEBD13A684D
:103DC000536823F0E00353607B68B3F5827F0BD028
:103DD000BB6AB3F5005F14D0012387F8513000238C
:103DE00087F85030032018E0BB68B3F5004F02D0CD
:103DF000B3F5806FECD13A68136823F04003136089
:103E0000E6E73A68136823F4005313603A681368CE
:103E100043F400531360DFE70020F8BD30B585B0F0
:103E2000164C2468164DA5FB0434640D4FF47A75C6
:103E300005FB04F403944468B4F5827F0BD0039B24
:103E4000C3B1039B013B039303689B6813F0800F8E
:103E5000F5D100230FE00B4604460092002280219A
:103E6000FFF794FF034630B1636D43F020036365B1
:103E7000032300E00023184605B030BD08000020F1
:103E8000819F5E1600283BD010B504460023836254
:103E900090F85130002B2ED0022384F85130226844
:103EA000136823F04003136022686368A1680B4322
:103EB000E1680B4321690B4361690B43E1690B43E3
:103EC000216A0B43A16A0B43A16901F400710B4302
:103ED00013602268638B03F00403616A0B43536031
:103EE0002268D36923F40063D36100206065012355
:103EF00084F8513010BD80F85030FCF799FDCBE7C5
:103F0000012070472DE9F04182B090F85040012C1B
:103F100000F0C2801D46174688460446012380F8FB
:103F20005030FDF745FD064694F85130DBB2012BC9
:103F300009D00220012384F85130002384F8503046
:103F400002B0BDE8F081B8F1000F00F09D80002FB5
:103F500000F09C80032384F8513000236365C4F88B
:103F60003080A786E786A363A387E387636423641F
:103F7000A368B3F5004F1CD023681A6812F0400FF5
:103F800003D11A6842F040021A60E368B3F5006F8B
:103F900015D063680BB1012F49D12368226B1278C9
:103FA0001A73236B01332363E38E013B9BB2E386D9
:103FB0003DE02268136843F480431360DCE76368E4
:103FC0000BB1012F13D12368226B1288DA60236BA7
:103FD00002332363E38E013B9BB2E38607E0FDF7E8
:103FE000E7FC801BA84216D3B5F1FF3F50D1E38E0A
:103FF0009BB2002B32D023689A6812F0020FEED0E9
:10400000226B1288DA60236B02332363E38E013B59
:104010009BB2E386EBE7002DE9D103208AE7FDF7A9
:10402000C7FC801BA84215D3B5F1FF3F32D1E38E08
:104030009BB29BB123689A6812F0020FEFD0226BFB
:1040400012781A73236B01332363E38E013B9BB217
:10405000E386ECE7002DEAD103206BE732462946E0
:104060002046FFF7DBFE08B120236365A36833B960
:1040700001932368DA6801929B680193019B606D4C
:10408000003018BF012055E7012053E7012051E718
:1040900003204FE703204DE7022051E790F850300E
:1040A000012B5FD010B50446012380F8503090F802
:1040B0005130DBB2012B05D00223002284F85020BE
:1040C000184610BD002949D0002A49D0032380F8A2
:1040D00051300023436501638286C2868363436453
:1040E00003648387C3878368B3F5004F1CD0A36C38
:1040F0001E4A1A64A36C1E4ADA63A36C1D4ADA6472
:10410000A36C00221A65E38E22680C32216BA06C2E
:10411000FDF762FA034668B1636D43F0100363650F
:10412000012384F85130C8E70268136843F48043E0
:104130001360DCE72268116811F0400F03D11168A9
:1041400041F04001116021684A6842F020024A6053
:1041500021684A6842F002024A60AEE70123ACE7F8
:104160000123AAE702231846704700BF7D410008DB
:10417000AB410008894100087047704708B5806B63
:10418000FFF7FBFF08BD704708B5806B02685368F6
:1041900023F003035360436D43F010034365012391
:1041A00080F85130FFF7EFFF08BD30B583B005460A
:1041B000846BFDF7FDFB2B681B6813F4807F23D114
:1041C0002268536823F0200353602268536823F069
:1041D00002035360024664212046FFF71FFE18B118
:1041E000636D43F020036365A36833B901932368CB
:1041F000DA6801929B680193019B0023E386012307
:1042000084F85130636D23B92046FFF7B5FF03B042
:1042100030BD2046FFF7B7FFF9E790F8510070472F
:10422000DFF834D0002103E00C4B5B5843500431DD
:104230000B480C4B42189A42F6D30B4A02E000237B
:1042400042F8043B094B9A42F9D3FDF727FDFCF7EE
:1042500003F8FCF7DFFA704700000220EC42000888
:104260000000002010000020100000209C4F0020C3
:10427000FEE70000F8B500BFF8BC08BC9E467047DA
:0C428000F8B500BFF8BC08BC9E467047B3
:10428C0064656661756C745461736B006D7954610F
:10429C00736B30320000000000061016000610167A
:1042AC0000000000000000000102030406070809DA
:1042BC00000000000102030449444C4500000000CA
:1042CC00546D725100000000546D722053766300DF
:0842DC00BCC1FF7F01000000DE
:0442E4003902000893
:0442E80011020008B7
:1042EC0001000000100000000024F400AAAAAAAAF1
:04000005080042218C
:00000001FF
